:04000000CAEF39F01A
:08000800046ED8CF05F0E0CF33
:1000100006F00001E9CF0CF0EACF07F0E1CF08F0DD
:10002000E2CF09F0D9CF0AF0DACF0BF0F3CF12F01C
:10003000F4CF13F0FACF14F000C00EF001C00FF0AF
:1000400002C010F003C011F09DAC2AEF00F09EBC7E
:10005000B0EF00F09DA030EF00F09EB0DEEF01F0B9
:100060000EC000F00FC001F010C002F011C003F08C
:100070000CC0E9FF07C0EAFF078E08C0E1FF09C016
:10008000E2FF0AC0D9FF0BC0DAFF12C0F3FF13C0B2
:10009000F4FF14C0FAFF045006C0E0FF05C0D8FF0B
:1000A0001000F2CF0DF0F29EF76ABC0FF66E000E54
:1000B000F7220900F5500DBEF28E120005001E0059
:1000C00032006400C8002C01F2CF0DF0F29EF76AF6
:1000D000E20FF66E000EF7220900F5500DBEF28E0B
:1000E000120001060A14283C0301A051070B006E00
:1000F000A031016E013201321F0E01160150A125FF
:10010000E96E000EA221EA6EEFCF01F0002A01D0C5
:100110000132002EFDD700013DEF01F00301A05197
:10012000070B006EA031016E013201321F0E011665
:100130000150A225E96E000EA321EA6E016A012A90
:10014000002A01D00136002EFDD7A15303E0015053
:10015000EF1203D0011E0150EF16000149EF01F02C
:10016000C2B2FED7C4CF9FF30301C3CF9EF30101F8
:10017000765102082AE3D8907635036A570FE96E64
:10018000010E0320EA6EECCF03F0ED52EFCF01F049
:10019000035003019F5DD8B002D0010116D006E1E3
:1001A0009E51015CD8A002D001010FD0D89001016E
:1001B0007635036A570FE96E010E0320EA6E9FC37E
:1001C000ECFFED529EC3EFFF2CD07651020829E2DE
:1001D000D8907635036A570FE96E010E0320EA6E58
:1001E000ECCF03F0ED52EFCF01F003019F51035C20
:1001F000D8B002D0010115D006E101509E5DD8A013
:1002000002D001010ED0D89001017635036A570F54
:10021000E96E010E0320EA6E9FC3ECFFED529EC310
:10022000EFFF7651020843E3D8907635036A840FD6
:10023000E96E010E0320EA6EECCFA1F3ED52EFCF91
:10024000A0F30301A15306E1A0518C08D8A002D06D
:1002500001012DD09F53D8B402D0010128D09E5166
:100260008C08D8B002D0010122D076C1A0F3010ED3
:10027000A26F8A0EA16F000137D701B019D076C1E5
:10028000A0F3010E0301A16FA36F8A0EA26F0001FC
:1002900045D701018E5102080AE38E518E2B036A65
:1002A0008B0FE96E010E0320EA6E76C1EFFF0001AD
:1002B0000101765102080DE3D8907635036A840F68
:1002C000E96E010E0320EA6E9FC3ECFFED529EC360
:1002D000EFFF775318E17651000A000105E0010AAB
:1002E00008E0030A0BE00DD0010E0101766F00015A
:1002F00008D0020E0101766F000103D00101766B78
:1003000000011FD001017651FA0F1CE2060F000117
:10031000BAEF01F0010E0101766F14D0020E010157
:10032000766F10D0030E0101766F0CD0040E010120
:10033000766F08D0050E0101766F04D00101766B4F
:1003400001D001017651050807E1380E016EC25057
:10035000830B0110C26E09D07635006E0036FC0E9C
:100360000016C250830B0010C26EC2829E9C000118
:1003700030EF00F0E824F76AF7368F0FF66E030EC1
:10038000F7220A00F550FA6E0800F550F96E1403D2
:100390001C0324032C0334033C0303019E51A003DC
:1003A000F3CF01F0F4CF00F0A103F35000269F51EA
:1003B000A003F3500020026E000112000101562B31
:1003C0000201E15304E1E25302E1E35318E0DF2BC1
:1003D000DF51130814E2DF6BE35302E0E3070FD0B1
:1003E0003B0EE36FE25302E0E20709D03B0EE26FFF
:1003F000E15302E0E10703D0D16BD26BD36BE02B6A
:10040000E051130805E2E06BB8513A0801E3B82B5C
:1004100001019A5302E19B5303E09A2BD8B49B2B22
:100420009C5307E1942D05D0955303E19D2BD8B43F
:100430009E2B9F5302E1A05303E09F2BD8B4A02B27
:100440005651310803E2010E756F566B91C19FF34F
:1004500090C19EF30301A16B0A0EA06F00019DDF06
:100460000250036E01019B5D06E303E19A51015CBA
:1004700002E2010E996F9E51010810E2FF0A03E1AA
:100480009D5157080BE29C5309E1942D07D09553D9
:1004900005E1010E966F9C6F9E6B9D6BDCC29FF316
:1004A000DBC29EF30301A16B0F0EA06F000175DF8D
:1004B0000250036E0101A05D05E303E19F51015C61
:1004C00001E2996B850ECF6EEE0ECE6E9E9000010E
:1004D00030EF00F0507265737320746F20455849F7
:1004E0005400507265737320746F20454E5445520A
:1004F000000045584954494E47204D454E552E2E33
:100500002E00312E50484153452053455454494EF6
:1005100047003E3E203220504841534520202020B5
:100520002020202000003E3E2033205048415345EB
:10053000202020202020202000003E3E203220507D
:1005400048415345202020202020202000003E3E0E
:1005500020332050484153452020202020202020B7
:100560000000504841534520534156454400322035
:100570005048415345003320504841534500507284
:1005800065737320454E54455220202020200000E2
:100590004E6F204368616E6765005072657373200B
:1005A000454E544552002573204E524D0000257390
:1005B00020465354000025732053554600003E3E0C
:1005C00020256C640000322E4A5549434520434F94
:1005D0004E54524F4C003E3E20454E41424C452029
:1005E00020202020202020003E3E2044495341422C
:1005F0004C4520202020202020003E3E20454E411A
:10060000424C452020202020202020003E3E204437
:10061000495341424C4520202020202020004A55AB
:10062000494345204354524C205341564544000011
:100630005354415455533A20454E41424C45202095
:1006400000005354415455533A2044495341424CBD
:1006500045200000507265737320454E544552206A
:10066000202020200000332E50575220444C592087
:100670004E4F524D0000332E50575220444C5920BB
:10068000464153540000332E50575220444C5920B9
:10069000535546410000202020256C64207365637B
:1006A0002020200044454C415920534156454421C7
:1006B0000000202020256C6420736563202020002A
:1006C000507265737320454E5445522020202020DF
:1006D00000004E6F204368616E676500507265735D
:1006E0007320454E54455200352E535441522044F8
:1006F000454C54204E524D00352E53544152204407
:10070000454C542046535400202020256C6420730F
:100710006563202020002044454C41592053415618
:10072000454421200000202020256C64207365634F
:1007300020202000507265737320454E544552208E
:100740002020202000004E6F204368616E67650006
:10075000507265737320454E54455200362E564FE5
:100760004C542053455454494E47202000004C4FD0
:100770005720564F4C542053455420202020000031
:100780004C56205341564544202020202020202034
:100790000000256C753A256C753A256C7520202073
:1007A000202020004849474820564F4C54205345AC
:1007B0005420202000004856205341564544202014
:1007C0002020202020200000256C753A256C753AE9
:1007D000256C75202020202020004F5645524C4F7C
:1007E0004144205345542020202000004F4C2053EA
:1007F0004156454420202020202020200000256C48
:10080000753A256C753A256C752020202020200033
:10081000564F4C54204D454E5520444F4E452020B8
:100820000000476F696E6720746F206E6578742EC4
:100830002E2E0000372E44525952554E20444C590A
:10084000204E4F524D00372E44525952554E20449F
:100850004C59204641535400372E44525952554E5C
:1008600020444C59205355464100202020256C64DB
:1008700020736563202020002044454C41592053BB
:10088000415645442100202020256C642073656377
:1008900020202000507265737320454E544552202D
:1008A0002020202000004E6F204368616E676500A5
:1008B000507265737320454E54455200382E445291
:1008C0005952554E20525354204E4F524D00382EFF
:1008D00044525952554E20525354204641535400CD
:1008E000382E44525952554E205253542053554697
:1008F0004100202020256C642073656320202000A7
:100900002044454C41592053415645442120202044
:100910000000202020256C642073656320202000C7
:10092000507265737320454E54455220202020207C
:1009300000004E6F204368616E67650050726573FA
:100940007320454E54455200392E44525952554E4B
:1009500020545250204E524D0000392E44525952CC
:10096000554E20545250204653540000202020253C
:100970006C6420416D707320202000002056414C93
:1009800055452053415645442120200020256C64C4
:1009900020416D7073202020000050726573732019
:1009A000454E544552202020202000004E6F204309
:1009B00068616E676500507265737320454E5445DB
:1009C0005200342E534554204F4E2054494D45205B
:1009D0004E524D00342E534554204F4E2054494D15
:1009E000452046535400342E534554204F4E205436
:1009F000494D452053554600202020256C64207326
:100A00006563202020002054494D45205341564520
:100A1000442120202000202020256C642073656361
:100A200020202000507265737320454E544552209B
:100A30002020202000004E6F204368616E67650013
:100A4000507265737320454E5445520031302E4329
:100A500059434C49432054494D4552004359434C56
:100A600049432054494D4552202564005072657316
:100A70007320746F20454E54455200004F4E203A6B
:100A800000004F46463A000054494D455220256427
:100A900020534156454421004F4E253032753A25AA
:100AA000303275204F46253032753A253032750088
:100AB000392E4155544F2052455354415254000051
:100AC0003E3E204D4F44453A204155544F20202072
:100AD000202000003E3E204D4F44453A204D414EDF
:100AE00055414C20202000003E3E204D4F44453AC9
:100AF000204155544F202020202000003E3E204D14
:100B00004F44453A204D414E55414C202020000095
:100B10004D4F444520534156454421004D4F4445D7
:100B20003A204155544F202020004D4F44453A2053
:100B30004D414E55414C2000507265737320454E17
:100B4000544552202020202000004E6F2043686131
:100B50006E676500507265737320454E54455200B0
:100B600031302E554E42414C414E43454420545263
:100B7000495000004C696D69743A2025334C752545
:100B800025004C494D49542053415645442100000D
:100B90004C696D69743A2025334C752525005072D7
:100BA00065737320454E54455220202020200000BC
:100BB0004E6F204368616E676500507265737320E5
:100BC000454E5445520031312E53454C4543542037
:100BD00043542054595045003E2025336C75412024
:100BE000282532753A31292020004354205341569C
:100BF0004544210043543A20256C75412028257531
:100C00003A312900507265737320454E5445522085
:100C10002020202000004E6F204368616E67650031
:100C2000507265737320454E5445520031322E5038
:100C30004920544553542D495240316D0000203A0B
:100C40002025332E3166204D4F686D202020000076
:100C5000495240316D2053415645442100005661B0
:100C60006C75653A2025332E3166204D4F686D0036
:100C7000507265737320454E544552202020202029
:100C80000000456E7465722049524031306D696EC6
:100C900020200000203A2025332E3166204D4F6859
:100CA0006D202020000050492056414C55455320CE
:100CB0005341564544210000316D3A25332E3166AB
:100CC0002031306D3A25332E316600005072657345
:100CD0007320454E544552202020202000005049CA
:100CE0003D25332E326620524553554C542000008A
:100CF000474F4F4420494E53554C4154494F4E2085
:100D00000000504F4F5220494E53554C4154494FCB
:100D10004E20000042414420494E53554C41544915
:100D20004F4E202000004E45572051424954524F0B
:100D30004E49435300004449474954414C205354C1
:100D40004152544552004449474954414C20535460
:100D50004152544552005365712E20436865636BC0
:100D6000696E672E2E2E0000504F574552204F4E71
:100D700020444C592E2E2E00202020256C642073F8
:100D8000656320202000454E544552494E47204D72
:100D9000454E552E2E2E00004F4E20004F46460049
:100DA000030EEA6E950EE96EEF500DE0060E016E31
:100DB000006A002EFED7012EFBD77B0E006E002EA0
:100DC000FED7EF2EF3D7120094988B9893908A90C9
:100DD000080E03019D6F9D5319E09C519D1503E082
:100DE00094968B8602D094968B96100E006E002EF1
:100DF000FED7000094988B88100E006E002EFED750
:100E0000000094988B98D8909D33E5D71CA003D010
:100E100094968B8602D094968B969D6B9D5101087B
:100E200010E3100E006E002EFED7000094988B8801
:100E3000100E006E002EFED7000094988B989D2B0C
:100E4000EDD793908A80020E006E002EFED700D060
:100E5000000093908A90000112001C9003019439C5
:100E6000956F0F0E951795C39CF30001ADDF03013D
:100E700094510F0B956F9C6F0001A6DF03019451F5
:100E80000C081BE0942D01D018D094510E0815E0E9
:100E900094510F0812E0945110080FE094511E086D
:100EA0000CE09451180809E09451080806E09451A8
:100EB000140803E09451020805E1320E956F000119
:100EC0006FDF0301000112001C9094968B9694989A
:100ED0008B9893908A90949694989390280E0301FF
:100EE000956F00015DDF030E0301946F0001B5DF14
:100EF000050E0301956F000153DF030E0301946F8C
:100F00000001ABDF050E0301956F000149DF030E01
:100F10000301946F0001A1DF050E0301956F00012D
:100F20003FDF020E0301946F000197DF050E0301FE
:100F3000956F000135DF280E0301946F00018DDFEE
:100F4000320E0301956F00012BDF0C0E0301946F2D
:100F5000000183DF320E0301956F000121DF060ED1
:100F60000301946F000179DF320E0301956F0001D8
:100F700017DF0C0E0301946F00016FDF320E0301C7
:100F8000956F00010DDF1200010E0301925DFC0F51
:100F90002DE2040F0001F8EF07F0800E0301912508
:100FA000FF0F936F946F000158DF03011FD0C00E35
:100FB00003019125FF0F936F946F00014EDF030132
:100FC00015D0940E03019125FF0F936F946F0001CC
:100FD00044DF03010BD0D40E03019125FF0F936F63
:100FE000946F00013ADF030101D0030100011200F8
:100FF000F2CF0DF0F29EE824F76AF736150FF66E81
:10100000100EF7220A00F550FA6E0800F5500DBEDA
:10101000F28EF96E9A0FAE0FC20FD60F1C8003012D
:101020009A399B6F0F0E9B179BC39CF30001CCDE7C
:10103000100E006E002EFED7000003019A510F0B18
:101040009B6F9C6F0001C0DE12000900F5520CE09E
:10105000F6CF83F3F7CF84F3F5CF9AF3DFDF83C3C3
:10106000F6FF84C3F7FFF1D7120001018E51030888
:1010700036E18B530DE18C2D0BD08D51020808E128
:101080000A0E0301956F00018BDE1C9226D0010130
:101090008B530EE18C5102080BE18D2D09D08F2B63
:1010A0001C820A0E0301956F00017ADE16D0010141
:1010B0008B2D0ED08C530CE18D51020809E18F2B42
:1010C0001C820A0E0301956F00016ADE06D0010141
:1010D0000A0E0301956F000163DE06D001010A0EBE
:1010E0000301956F00015CDE53EF41F001018A912D
:1010F0008A938A958E6B000112008E0E006E04C3D7
:1011000001F003C302F0036A015209E102C001F0D9
:10111000026A080E005E015202E1006A08D0D8900F
:1011200001BE04D0023601360006F9D7019E120036
:1011300003011051D8B471D0006E1451D8B46DD0E1
:10114000002604E3810E002668E204D07F0E005ED4
:1011500064E363E011C318F31551181B118F158F49
:1011600013511703F4CF1AF312511603F4CF03F0FF
:10117000F3CF19F31703F3501A27F4501923000E75
:10118000032213511603F3501A27F4501923000EAB
:10119000026A0322022211511703F3501927F45057
:1011A0000322000E022211511603F3500326F450BD
:1011B0000222000E016A012213511503F350192770
:1011C000F4500322000E0222012212511503F350A3
:1011D0000326F4500222000E012211511503F35090
:1011E0000226F4500122002A01BE05D01937033629
:1011F000023601360006000E19AF0AD0032A022279
:101200000122015005E1025003E1035001E1002AEF
:1012100018BF018E18AF019E04D0006A016A026AED
:10122000036A0001120003010751D8B4A5D0136F5F
:101230000B51D8B4A1D0135F05E37F0E1327D8B0AC
:101240009BD006D0810E135FD8A096D0D8B494D08E
:1012500013C300F0016A026A036A126B08C311F338
:10126000118F09C310F30AC30FF3190E136F0E5138
:101270000F5F0DE2010E105F0AE2115F08E2125FDC
:1012800006E2122B112B102B0E510F2728D00D51D7
:10129000105F12E2010E115F0FE2125F0DE2122BDE
:1012A000112B0D5110270E510F2719E3102B17E1A9
:1012B000112B15E1122B13D00C518009115F0EE296
:1012C000010E125F0BE2122B0C51800911270D51F8
:1012D0001027E9E3112BE7E1122BE5D70380132F49
:1012E00001D00BD0D8900F37103711371237D89064
:1012F0000336023601361437BAD714A106D0D89077
:10130000013202320332143302D0000635E014BF3A
:101310001ED0D8900F371037113712370E510F5F8C
:1013200007E2010E105F04E2115F02E2125F1AE3AE
:101330000D51105F05E2010E115F02E2125F12E330
:101340000C518009115F03E2010E125F0BE3032AC7
:1013500009E1022A07E1012A05E1002A0DE0013234
:101360000232033208C313F30C51131B13AF02D024
:10137000018E06D0019E04D0006A016A026A036AE7
:10138000000112008E0E006E0201F751005EF8C2DD
:1013900002F0F9C201F0028E005209E0D890025228
:1013A00002E1015204E002320132002EF7D7F8AF19
:1013B00005D0011E021E012AD8B4022A0001AAEF9C
:1013C0000AF00101645306E16351310803E3036A43
:1013D000000E03D064C103F06351B56F03C0B6F1D2
:1013E000665306E16551310803E3036A000E03D03A
:1013F00066C103F06551B76F03C0B8F1685306E1E9
:101400006751310803E3036A000E03D068C103F09B
:101410006751B96F03C0BAF174C1ACF173C1ABF1DC
:1014200072C1AAF171C1A9F170C1B0F16FC1AFF180
:101430006EC1AEF16DC1ADF16CC1B4F16BC1B3F170
:101440006AC1B2F169C1B1F1B6C1BCF1B5C1BBF1BC
:10145000B8C1BEF1B7C1BDF1BAC1C0F1B9C1BFF1E8
:1014600000015BEF0BF001017553D8B428D1756B07
:101470000201EC6BEC510208D8A07FD0D890EC357B
:10148000036A570FE96E010E0320EA6EECCFF6F205
:10149000ED52EFCFF5F2F6C204F3F5C203F300010B
:1014A0002CDE03C013F302C012F301C011F300C01D
:1014B00010F3290E0301176F5C0E166F1F0E156FC8
:1014C000810E146F000134DE03C0F8F202C0F7F29F
:1014D00001C0F6F200C0F5F203C00AF302C009F33E
:1014E00001C008F300C007F303010E6BC00E0D6FBF
:1014F0007F0E0C6F880E0B6F000195DE03C0F0F2BB
:1015000002C0EFF201C0EEF200C0EDF2D89002018D
:10151000EC35036A630FE96E010E0320EA6EF0C238
:1015200013F3EFC212F3EEC211F3EDC210F3330E58
:101530000301176F166F430E156F870E146F0001AE
:10154000F7DD03C0FAF202C0F9F201C0F8F200C000
:10155000F7F218D702C0ECFFED5201C0EFFFD890B0
:101560000201EC35036A570FE96E010E0320EA6EA3
:10157000EC6AED52EF6AEC2B7DD7030EEC6FEC5169
:101580000508D8A096D0D890EC35036A570FE96EBD
:10159000010E0320EA6EECCFF6F2ED52EFCFF5F23A
:1015A000F6C204F3F5C203F30001A7DD03C013F391
:1015B00002C012F301C011F300C010F30301176B56
:1015C000166B200E156F810E146F0001B1DD03C084
:1015D000F8F202C0F7F201C0F6F200C0F5F203C063
:1015E0000AF302C009F301C008F300C007F30301C6
:1015F0000E6BC00E0D6F7F0E0C6F880E0B6F00010F
:1016000012DE03C0F4F202C0F3F201C0F2F200C035
:10161000F1F2030E0201EC5D040DF350036A690F51
:10162000E96E010E0320EA6EF4C20AF3F3C209F375
:10163000F2C208F3F1C207F3FC0E03010E6FA90E0C
:101640000D6F710E0C6F7A0E0B6F0001ECDD03C095
:10165000FAF202C0F9F201C0F8F200C0F7F203C0DA
:1016600013F302C012F301C011F300C010F30A0E0D
:101670000301176FD70E166F230E156F7E0E146FB2
:10168000000156DD00C0EFFF01C0ECFF02C0ECFF1F
:1016900003C0ECFFD8900201EC35036A570FE96EE6
:1016A000010E0320EA6E030EEC6EED52EF68EC2B98
:1016B00066D7000186D6000E016E04D00101010E2E
:1016C000016E00011200010153534EE0B6510201B8
:1016D000AD5D1BE307E1AC510101B55DD8A002D0BF
:1016E000020113D00101B8510201AF5D0EE308E120
:1016F000AE510101B75DD8A002D0020106D00201AF
:10170000010E0101986F2FD00201A7510101B65DB2
:1017100008E315E1B5510201A65DD8B002D0010180
:101720000ED00201A9510101B85D0CE308E1B751E7
:101730000201A85DD8A002D0010104D00101020E6F
:10174000986F11D0982D01D003D0985102080AE16A
:101750009C2D08D0942D06D0955304E19C6B9E6B74
:101760009D6B966B986B67D0B6510201AD5D08E337
:1017700022E1AC510101B55DD8B002D002011BD00D
:101780000101B8510201AF5D08E315E1AE5101015D
:10179000B75DD8B002D002010ED00101BA510201EA
:1017A000B15D0EE308E1B0510101B95DD8A002D0EE
:1017B000020106D00201010E0101986F3CD0020126
:1017C000A7510101B65D08E322E1B5510201A65D12
:1017D000D8B002D001011BD00201A9510101B85DAE
:1017E00008E315E1B7510201A85DD8B002D00101AC
:1017F0000ED00201AB510101BA5D0CE308E1B95111
:101800000201AA5DD8A002D0010104D00101020E9C
:10181000986F11D0982D01D003D0985102080AE199
:101820009C2D08D0942D06D0955304E19C6B9E6BA3
:101830009D6B966B986B000112000900F6CF92F336
:10184000F7CF93F3F5CF9AF30EEC08F092C3F6FFBF
:1018500093C3F7FF0301912F01D002D00001EDD710
:1018600000011200EACF99F3E9CF98F3030192AF98
:1018700008D0988F98A9982B911F921F912BD8B4BC
:10188000922B9239F009946F9427E20F956F320FE3
:10189000976F92510F0B952795279727E90F966F12
:1018A0009627962791390F0B9627972796379737C4
:1018B000971F973791510F0B97279437070E936F08
:1018C0000A0E96079727FDE395079627FDE39407F1
:1018D0009527FDE393079427FDE3030EEA6E930E2D
:1018E000E96E070E9815989DED52981507E198B985
:1018F000EE5298B903D0200E006E21D0E926000EDA
:10190000EA22E950970804E1EA50030801E1988DC2
:10191000EF50006E08E198BD06D098B91ED098B778
:1019200002D0200E0BD098AF06D02D0E006EED50D9
:10193000989D989F04D098879899300E0026EACFFA
:1019400092F3E9CF91F300C09AF300010EEC08F096
:1019500092C3EAFF91C3E9FF0301EE5098ADD1D7DE
:101960000001120004C30BF3030108510B1B0BAF62
:1019700005D0D894D89004BFD8802FD004C30BF3DF
:1019800007C30CF303510C5F06E00BAF26D0D85011
:10199000010AD86E22D008C30CF304510C5F06E094
:1019A0000BAF1BD0D850010AD86E17D009C30CF367
:1019B00005510C5F06E00BAF10D0D850010AD86E6D
:1019C0000CD00AC30CF306510C5F06E00BAF05D038
:1019D000D850010AD86E01D0D89000011200010140
:1019E0005353D8B489D093C104F392C103F30001D7
:1019F0007DEC08F0ACC106F3ABC105F3AAC104F35A
:101A0000A9C103F303C00AF302C009F301C008F33C
:101A100000C007F3A7DF28E393C104F392C103F3E7
:101A20007DEC08F0B0C106F3AFC105F3AEC104F31D
:101A3000ADC103F303C00AF302C009F301C008F308
:101A400000C007F38FDF10E301019A530BE19B53B2
:101A500009E1995307E1972D05D09B6B010E9A6F11
:101A6000A06B9F6F48D00001B3C204F3B2C203F36E
:101A70007DEC08F003C006F302C005F301C004F3D7
:101A800000C003F3ACC10AF3ABC109F3AAC108F368
:101A9000A9C107F367DF18E2B5C204F3B4C203F3C8
:101AA0007DEC08F003C006F302C005F301C004F3A7
:101AB00000C003F3B0C10AF3AFC109F3AEC108F32C
:101AC000ADC107F34FDF05E3020E0101996F13D09B
:101AD00000010101995304E19B6B9A6BA06B9F6B12
:101AE0009951020808E10201A22D01D002D00101A2
:101AF00002D00101996BB8D093C104F392C103F3F2
:101B000000017DEC08F0ACC106F3ABC105F3AAC13E
:101B100004F3A9C103F303C00AF302C009F301C02F
:101B200008F300C007F31EDF40E393C104F392C142
:101B300003F37DEC08F0B0C106F3AFC105F3AEC10D
:101B400004F3ADC103F303C00AF302C009F301C0FB
:101B500008F300C007F306DF28E393C104F392C142
:101B600003F37DEC08F0B4C106F3B3C105F3B2C1D1
:101B700004F3B1C103F303C00AF302C009F301C0C7
:101B800008F300C007F3EEDE10E301019A530BE106
:101B90009B5309E1995307E1972D05D09B6B010EEB
:101BA0009A6FA06B9F6F60D00001B3C204F3B2C202
:101BB00003F37DEC08F003C006F302C005F301C097
:101BC00004F300C003F3ACC10AF3ABC109F3AAC12B
:101BD00008F3A9C107F3C6DE35E3B5C204F3B4C206
:101BE00003F37DEC08F003C006F302C005F301C067
:101BF00004F300C003F3B0C10AF3AFC109F3AEC1EF
:101C000008F3ADC107F3AEDE1DE3B7C204F3B6C2FD
:101C100003F37DEC08F003C006F302C005F301C036
:101C200004F300C003F3B4C10AF3B3C109F3B2C1B2
:101C300008F3B1C107F396DE05E3020E0101996FC7
:101C400013D000010101995304E19B6B9A6BA06BC7
:101C50009F6B9951020808E10201A22D01D002D028
:101C6000010102D00101996B00013AEF42F003013A
:101C70001051B608106F036A11C314F3118FD89076
:101C80001133123313330332023201320032102F78
:101C9000F6D714AF0BD0001E011E021E031E002A31
:101CA000D8B4012AD8B4022AD8B4032A0001CFEF4D
:101CB0000EF0D8B204D0030EEA6E180EE96E006A78
:101CC000016A026A036A0301186B196B1A6B1B6BBA
:101CD00017511611151114112CE0200E1C6FD890FD
:101CE0001037113712371337183719371A371B3790
:101CF00017511B5D08E116511A5D05E11551195D7B
:101D000002E11451185D0FE31451185F1551D8A06A
:101D1000153D195F1651D8A0163D1A5F1751D8A06E
:101D2000173D1B5FD88000360136023603361C2F64
:101D3000D6D718C3EFFF19C3ECFF1AC3ECFF1BC3C0
:101D4000ECFF00011200E9500301086F07510A6F10
:101D50001CE006C313F305C312F304C311F303C35A
:101D600010F3176B166B200E156F820E146F0001A7
:101D700098EC08F003C006F302C005F301C004F3B9
:101D800000C003F303010A2FE4D706C313F305C30E
:101D900012F304C311F303C310F3000168D703C0A7
:101DA00006F302C005F301C004F300C003F303010E
:101DB00006AF0DD00807088B031F041F051F061F61
:101DC000032BD8B4042BD8B4052BD8B4062B3B0E68
:101DD0000F6F9A0E0E6FCA0E0D6F0C6B0A0E0A6F04
:101DE0000751D8B4082BD882030EEA6EE96E06C3F9
:101DF00013F305C312F304C311F303C310F30FC3AA
:101E000017F30EC316F30DC315F30CC314F300013F
:101E100050DF0150005213E1030107290A5DD8A4E5
:101E200002D000010CD008510DE00F0B0A5D01E05B
:101E300044E208BF42D008BD05D0200E37D0200EA6
:101E40000301081708AB0FD0089B0751D8A4080757
:101E50000050086F2D0E9A6F00010EEC08F0030180
:101E60000851006E086B07510A5D0DE10050086FC4
:101E70002E0E9A6F00010EEC08F003010851006E5F
:101E8000200E0817000E300E08AB10D0089B07512B
:101E9000D8A408070050086F2D0E9A6F00010EECB1
:101EA00008F003010851006E086B300E002600C0D8
:101EB0009AF300010EEC08F00301D8920FC313F35C
:101EC0000EC312F30DC311F30CC310F3176B166B93
:101ED000156B0A0E146F0001ECDE03C00FF302C095
:101EE0000EF301C00DF300C00CF303010A2F7BD7E2
:101EF00000011200016A026A006A036A0201F151DC
:101F000002E1F05118E0100EF26FD890EE37EF3783
:101F100000360336F151035C02E1F051005C07E347
:101F2000F051005ED8A00306F151035ED88001365F
:101F30000236F22FEAD70001120003017A51016A3A
:101F4000795D03E279C300F00CD0006A080E7B6F64
:101F5000793700367A51005CD8B0006E01367B2F9D
:101F6000F7D700011200200E030174A9300E756F1F
:101F700073C300F073AF08D0001E002A00C073F3D3
:101F80002D0E756F748F7481015073C379F3640ED5
:101F90007A6F0001D2DF00C073F3300E0124030119
:101FA000766F73C379F30A0E7A6F0001C6DF300EC5
:101FB00000240301786F300E0124776F75C300F0A1
:101FC000300E765D04E0748374BF748512D075C3DF
:101FD00076F3200E756F300E775D04E0748174BF68
:101FE000748307D0D8A4748104E176C377F3200EFC
:101FF000766F74B505D074B308D074B10BD00FD020
:1020000075C39AF300010EEC08F076C39AF3000151
:102010000EEC08F077C39AF300010EEC08F078C3D9
:102020009AF300010EEC08F012008A888A9A040ED6
:102030000201EC6FFA0E0301956F0001D0EC06F07F
:102040000201EC2FF7D7040EEC6FFA0E0301956F27
:102050000001D0EC06F00201EC2FF7D7040EEC6F74
:10206000FA0E0301956F0001D0EC06F00201EC2F8F
:10207000F7D7040EEC6FFA0E0301956F0001D0EC58
:1020800006F00201EC2FF7D70101C66BC56B610E9C
:10209000C76F992D01D001D08A8A00011200EF523A
:1020A00010E0EACF92F3E9CF91F3EFCF9AF30EEC81
:1020B00008F092C3EAFF91C3E9FFE92AD8B4EA2AFB
:1020C000EED712000201E4514B5C3AE0010E03012D
:1020D000946F00012DEC07F0010E0301916F926FD8
:1020E0000001C4EC07F0D8904B34036A4E0FE96E40
:1020F000000E0320EA6EECCFEDF2ED52EFCFECF2E2
:10210000EDC2EAFFECC2E9FFCADF010E0301916FE5
:10211000020E926F0001C4EC07F04B500F0807E16C
:10212000D40EF66E040EF76E25EC08F006D0E20E23
:10213000F66E040EF76E25EC08F04BC0E4F20201D7
:102140000001A7EF10F04C52D8B471D0BBD782BABF
:1021500012D0928880A80FD0050E0301956F000160
:10216000D0EC06F04B2A4B500F0802E2010E4B6EEA
:1021700082AAFED714D0928880B811D082AA0FD03C
:10218000050E0301956F0001D0EC06F04B2C03D037
:102190000F0E4B6E01D04B06928880A8FDD781BCF4
:1021A0003FD0140E0301956F0001D0EC06F081BC06
:1021B00037D081BC07D00A0E0301956F0001D0EC27
:1021C00006F0F7D74B500F0829E13F6A4C6A010E21
:1021D0000301946F00012DEC07F0010E0301916FD4
:1021E000926F0001C4EC07F0F20EF66E040EF76E6B
:1021F00025EC08F0040E0201EC6FFA0E0301956F56
:102200000001D0EC06F00201EC2FF7D7010E03011C
:10221000946F00012DEC07F00AD002D04C6A07D071
:10222000010E0301956F0001D0EC06F08CD751EF41
:1022300039F04B2A4B500F0802E2010E4B6E010E93
:102240004C6E120081ACFED7010E0301946F0001A9
:102250002DEC07F0010E0301916F926F0001C4ECA9
:1022600007F0020EF66E050EF76E25EC08F0F2CFC1
:10227000EFF2F29EAA6AA96AA69CA69EA680A85022
:102280000201EFBFF28EEC6FECC2EDF2EE69010ECF
:102290000301916F020E926F0001C4EC07F002017E
:1022A000EC5309E1120EF66E050EF76E000125ECF7
:1022B00008F008D00201260EF66E050EF76E00013A
:1022C00025EC08F082BA12D0928880A80FD0050EB3
:1022D0000301956F0001D0EC06F0010E0201EC2520
:1022E000010BEC6F82AAFED716D00001928880B84D
:1022F00013D082AA11D0050E0301956F0001D0EC16
:1023000006F00201EC5302E1010E01D0000EEC6F69
:10231000928880A8FDD700010201EE51EC5D1EE01D
:10232000010E0301916F020E926F0001C4EC07F0E1
:102330000201EC5309E13A0EF66E050EF76E00014C
:1023400025EC08F008D002014E0EF66E050EF76E71
:10235000000125EC08F0ECC2EEF2020181BCAED027
:10236000140E0301956F0001D0EC06F081BCA5D0DE
:102370000201ED51EC5D6CE0F250006EF29EAA6A33
:10238000A96AECC2A8FFA69CA69EA6840F01550EC2
:10239000A76EAA0EA76EA682A6B2FED7A69400507C
:1023A000F212010E0301946F00012DEC07F0010EF3
:1023B0000301916F926F0001C4EC07F0620EF66E9C
:1023C000050EF76E25EC08F0010E0301916F020E69
:1023D000926F0001C4EC07F00201EC530BE16E0EAA
:1023E000F66E050EF76E000125EC08F0ECC253F115
:1023F0000AD00201760EF66E050EF76E000125EC8E
:1024000008F0ECC253F181ACFED7010E0301916FCD
:10241000020E926F0001C4EC07F07E0EF66E050E00
:10242000F76E25EC08F081BCFED7140E0301956F02
:102430000001D0EC06F081ACFED7320E0301956F9F
:102440000001D0EC06F0ECC240F0F3DE35D0020122
:1024500081ACFED7010E0301946F00012DEC07F053
:10246000010E0301916F926F0001C4EC07F0900E12
:10247000F66E050EF76E25EC08F0010E0301916F64
:10248000020E926F0001C4EC07F09A0EF66E050E74
:10249000F76E25EC08F081BCFED7140E0301956F92
:1024A0000001D0EC06F081ACFED7320E0301956F2F
:1024B0000001D0EC06F0BDDE08D00201010E0301E0
:1024C000956F0001D0EC06F0FDD659EF39F081ACE4
:1024D000FED7F2CFEEF2F29EAA6A030EA96EA69C78
:1024E000A69EA680A8500201EEBFF28EEC6FEC53C0
:1024F00005E0EC2D01D002D0010EEC6FED69010E6C
:102500000301946F00012DEC07F0010E0301916FA0
:10251000926F0001C4EC07F0C60EF66E050EF76E62
:1025200025EC08F0010E0301916F020E926F00017D
:10253000C4EC07F00201EC2D09D0D60EF66E050EA4
:10254000F76E000125EC08F008D00201E80EF66EE7
:10255000050EF76E000125EC08F082BA14D09288BF
:1025600080A811D0050E0301956F0001D0EC06F094
:102570000201EC2D02D0000E01D0010EEC6F82AAF8
:10258000FED716D00001928880B813D082AA11D04D
:10259000050E0301956F0001D0EC06F00201EC2D51
:1025A00002D0000E01D0010EEC6F928880A8FDD7FA
:1025B00000010201ED51EC5D1EE0010E0301916F7F
:1025C000020E926F0001C4EC07F00201EC2D09D05D
:1025D000FA0EF66E050EF76E000125EC08F008D035
:1025E00002010C0EF66E060EF76E000125EC08F0E7
:1025F000ECC2EDF2020181BC75D0140E0301956F9F
:102600000001D0EC06F081BC6CD0F250006EF29E5E
:10261000AA6A030EA96EECC2A8FFA69CA69EA68479
:102620000F01550EA76EAA0EA76EA682A6B2FED700
:10263000A6940050F212010E0301946F00012DECDC
:1026400007F0010E0301916F926F0001C4EC07F0D7
:102650001E0EF66E060EF76E25EC08F0010E030155
:10266000916F020E926F0001C4EC07F00201EC2D95
:1026700009D0300EF66E060EF76E000125EC08F05C
:1026800008D00201420EF66E060EF76E000125EC30
:1026900008F081ACFED7010E0301916F020E926F1C
:1026A0000001C4EC07F0540EF66E060EF76E25EC32
:1026B00008F081BCFED7140E0301956F0001D0EC29
:1026C00006F081ACFED7320E0301956F0001D0EC0D
:1026D00006F0010E0301946F00012DEC07F0A9DD57
:1026E00008D00201010E0301956F0001D0EC06F045
:1026F00034D75FEF39F081ACFED7F2CFF7F2F29E1C
:10270000AA6A110EA96EA69CA69EA680A8500201D8
:10271000F7BFF28EF86FF2CFF9F2F29EAA6A100EAE
:10272000A96EA69CA69EA680A850F9BFF28EFA6F4D
:10273000F8C2EDF2FAC2ECF2ED51020809E2FF0A2A
:1027400003E1EC51E70804E2030EED6FE70EEC6FD6
:10275000EDC2EFF2ECC2EEF2010EF06FF269F16938
:10276000F369F4910301946F00012DEC07F0640EFE
:102770000301956F0001D0EC06F00201ED51020853
:1027800009E2FF0A03E1EC51E70804E2030EED6FF2
:10279000E70EEC6FF151EC5D06E1F251ED5D03E106
:1027A000F351F05D5DE0010E0301946F00012DEC2B
:1027B00007F0010E0301916F926F0001C4EC07F066
:1027C0000201F02D09D0660EF66E060EF76E0001BE
:1027D00025EC08F014D00201F0510A0809E1760E48
:1027E000F66E060EF76E000125EC08F008D0020127
:1027F000860EF66E060EF76E000125EC08F0010E4F
:102800000301916F020E926F0001C4EC07F0960E67
:10281000F66E060EF76E030E0301916F00011DECBC
:102820000CF0100EE96EEDC292F3ECC291F332ECB3
:102830000CF09C0EF66E060EF76E070E0301916FFC
:1028400000011DEC0CF0EDC2F2F2ECC2F1F2F0C2AC
:10285000F3F2320E0301956F0001D0EC06F0020195
:1028600081B624D0320E0301956F0001D0EC06F042
:102870000201F02D03D00A0EF06F08D0F0510A08C3
:1028800003E1640EF06F02D0010EF06FF369320EB7
:10289000F56F81B60BD0F55309E00A0E0301956F71
:1028A0000001D0EC06F00201F507F3D781B419D08E
:1028B000320E0301956F0001D0EC06F0010E02010B
:1028C000F06FF369320EF66F81B40BD0F65309E066
:1028D0000A0E0301956F0001D0EC06F00201F60725
:1028E000F3D782BA2FD0928880A82CD04D522AE1FB
:1028F000050E0301956F0001D0EC06F0E70ED880BD
:102900000201F055006E030ED8A0E806036E00C069
:1029100001F0ED51035C0AE303E1EC51015C06E3D5
:10292000F051EC27000EED234D6A02D0010E4D6EE2
:10293000280E0301956F0001D0EC06F082AAFED7A5
:1029400025D00201928880B822D082AA20D04D5290
:102950001EE1050E0301956F0001D0EC06F00201A7
:10296000ED5303E1F051EC5D06E3F051EC5F000E36
:10297000ED5B4D6A02D0010E4D6E280E0301956F7E
:102980000001D0EC06F0928880A8FDD7020182AA4F
:1029900004D0928880A801D04D6A81BC01D1F4B1E5
:1029A000FFD0140E0301956F0001D0EC06F081BC3E
:1029B000F5D00201F481EE51EC5D04E1EF51ED5DE3
:1029C000D8B4A1D0ED51020809E2FF0A03E1EC51AD
:1029D000E70804E2030EED6FE70EEC6FECC2F7F2CE
:1029E000F250006EF29EAA6A100EA96EF7C2A8FFFE
:1029F000A69CA69EA6840F01550EA76EAA0EA76ED2
:102A0000A682A6B2FED7A6940050F212EDC2F7F24B
:102A1000F2CF00F0F29EAA6A110EA96EEDC2A8FFD5
:102A2000A69CA69EA684550EA76EAA0EA76EA68289
:102A3000A6B2FED7A6940050F212010E0301946FC5
:102A400000012DEC07F0010E0301916F926F000160
:102A5000C4EC07F0A40EF66E060EF76E25EC08F037
:102A6000010E0301916F020E926F0001C4EC07F09A
:102A7000B20EF66E060EF76E030E0301916F0001A3
:102A80001DEC0CF0100EE96EEDC292F3ECC291F366
:102A900032EC0CF0B80EF66E060EF76E070E030160
:102AA000916F00011DEC0CF0EDC23DF0ECC23CF06A
:102AB00081BC07D00A0E0301956F0001D0EC06F02F
:102AC000F7D7010E0301916F020E926F0001C4EC63
:102AD00007F0C00EF66E060EF76E25EC08F081BC0E
:102AE000FED7140E0301956F0001D0EC06F081AC07
:102AF000FED7320E0301956F0001D0EC06F019EC01
:102B000011F03ED0020181BC08D00A0E0301956F7E
:102B10000001D0EC06F00201F6D7010E0301946F1C
:102B200000012DEC07F0010E0301916F926F00017F
:102B3000C4EC07F0D20EF66E060EF76E25EC08F028
:102B4000010E0301916F020E926F0001C4EC07F0B9
:102B5000DC0EF66E060EF76E25EC08F081BCFED793
:102B6000140E0301956F0001D0EC06F081ACFED786
:102B7000320E0301956F0001D0EC06F019EC11F054
:102B8000010E0301946F00012DEC07F0640E0301A8
:102B9000956F0001D0EC06F010D003D00201F49143
:102BA000000181AC03D00201F4910001010E030188
:102BB000956F0001D0EC06F0E0D565EF39F0320EEC
:102BC0000301956F0001D0EC06F081ACFED7F2CF87
:102BD000F7F2F29EAA6A490EA96EA69CA69EA6804E
:102BE000A8500201F7BFF28EF86FF2CFF9F2F29E11
:102BF000AA6A480EA96EA69CA69EA680A850F9BFF8
:102C0000F28EFA6FF8C2EDF2FAC2ECF2ED5303E184
:102C1000EC513C0803E2ED6B3C0EEC6FEDC2EFF2C1
:102C2000ECC2EEF2010EF06FF269F169F369F49112
:102C30000301946F00012DEC07F0640E0301956F02
:102C40000001D0EC06F00201ED5303E1EC513C0829
:102C500003E2ED6B3C0EEC6FF151EC5D06E1F251DD
:102C6000ED5D03E1F351F05D5DE0010E0301946F52
:102C700000012DEC07F0010E0301916F926F00012E
:102C8000C4EC07F00201F02D09D0C20EF66E090E59
:102C9000F76E000125EC08F014D00201F0510A088B
:102CA00009E1D40EF66E090EF76E000125EC08F06E
:102CB00008D00201E60EF66E090EF76E000125EC53
:102CC00008F0010E0301916F020E926F0001C4EC37
:102CD00007F0F80EF66E090EF76E030E0301916F02
:102CE00000011DEC0CF0100EE96EEDC292F3ECC287
:102CF00091F332EC0CF0FE0EF66E090EF76E070E35
:102D00000301916F00011DEC0CF0EDC2F2F2ECC278
:102D1000F1F2F0C2F3F2320E0301956F0001D0EC34
:102D200006F0020181B624D0320E0301956F000136
:102D3000D0EC06F00201F02D03D00A0EF06F08D09F
:102D4000F0510A0803E1640EF06F02D0010EF06F3B
:102D5000F369320EF56F81B60BD0F55309E00A0E18
:102D60000301956F0001D0EC06F00201F507F3D7DF
:102D700081B419D0320E0301956F0001D0EC06F03A
:102D8000010E0201F06FF369320EF66F81B40BD0C1
:102D9000F65309E00A0E0301956F0001D0EC06F02E
:102DA0000201F607F3D782BA26D0928880A823D0F2
:102DB0004D5221E1050E0301956F0001D0EC06F0A4
:102DC0003C0ED8800201F055ED5309E1EC5D01E0C5
:102DD00006E2F051EC27000EED234D6A02D0010E01
:102DE0004D6E280E0301956F0001D0EC06F082AA0B
:102DF000FED725D00201928880B822D082AA20D0A6
:102E00004D521EE1050E0301956F0001D0EC06F056
:102E10000201ED5303E1F051EC5D06E3F051EC5F8C
:102E2000000EED5B4D6A02D0010E4D6E280E0301BF
:102E3000956F0001D0EC06F0928880A8FDD70201C2
:102E400082AA04D0928880A801D04D6A81BCF9D0B2
:102E5000F4B1F7D0140E0301956F0001D0EC06F029
:102E600081BCEDD00201F481EE51EC5D04E1EF5143
:102E7000ED5DD8B499D0ED5303E1EC513C0803E289
:102E8000ED6B3C0EEC6FECC2F7F2F250006EF29E6E
:102E9000AA6A480EA96EF7C2A8FFA69CA69EA684A1
:102EA0000F01550EA76EAA0EA76EA682A6B2FED778
:102EB000A6940050F212EDC2F7F2F2CF00F0F29EAB
:102EC000AA6A490EA96EEDC2A8FFA69CA69EA6847A
:102ED000550EA76EAA0EA76EA682A6B2FED7A6941E
:102EE0000050F212010E0301946F00012DEC07F067
:102EF000010E0301916F926F0001C4EC07F0060E02
:102F0000F66E0A0EF76E25EC08F0010E0301916FC4
:102F1000020E926F0001C4EC07F0160EF66E0A0E58
:102F2000F76E030E0301916F00011DEC0CF0100E03
:102F3000E96EEDC292F3ECC291F332EC0CF01C0E90
:102F4000F66E0A0EF76E070E0301916F00011DEC7D
:102F50000CF081BC07D00A0E0301956F0001D0EC84
:102F600006F0F7D7010E0301916F020E926F000178
:102F7000C4EC07F0240EF66E0A0EF76E25EC08F08E
:102F800081BCFED7140E0301956F0001D0EC06F052
:102F900081ACFED7320E0301956F0001D0EC06F034
:102FA00019EC11F03ED0020181BC08D00A0E0301D9
:102FB000956F0001D0EC06F00201F6D7010E030177
:102FC000946F00012DEC07F0010E0301916F926FD9
:102FD0000001C4EC07F0360EF66E0A0EF76E25EC13
:102FE00008F0010E0301916F020E926F0001C4EC14
:102FF00007F0400EF66E0A0EF76E25EC08F081BC65
:10300000FED7140E0301956F0001D0EC06F081ACE1
:10301000FED7320E0301956F0001D0EC06F019ECDB
:1030200011F0010E0301946F00012DEC07F0640E06
:103030000301956F0001D0EC06F010D003D002011F
:10304000F491000181AC03D00201F4910001010E62
:103050000301956F0001D0EC06F0F5D56BEF39F068
:10306000320E0301956F0001D0EC06F081ACFED763
:10307000F2CFF5F2F29EAA6A150EA96EA69CA69E44
:10308000A680A8500201F5BFF28EF66FF2CFF7F2DC
:10309000F29EAA6A140EA96EA69CA69EA680A850AF
:1030A000F7BFF28EF86FF6C220F0F8C21FF0205280
:1030B00003E11F503C0803E2206A3C0E1F6E20C053
:1030C000EDF21FC0ECF2BA6B1FC0B9F2010EEE6F49
:1030D000F069EF69F169F2910301946F00012DEC41
:1030E00007F0640E0301956F0001D0EC06F020524A
:1030F00003E11F503C0803E2206A3C0E1F6E0201F0
:10310000EF511F5C06E1F051205C03E1F151EE5DEF
:1031100051E0010E0301946F00012DEC07F0010E48
:103120000301916F926F0001C4EC07F00201EE2DD4
:1031300009D0E80EF66E060EF76E000125EC08F0D9
:1031400008D00201F80EF66E060EF76E000125ECAF
:1031500008F0010E0301916F020E926F0001C4ECA2
:1031600007F0080EF66E070EF76E030E0301916F5F
:1031700000011DEC0CF0100EE96E20C092F31FC090
:1031800091F332EC0CF00E0EF66E070EF76E070E92
:103190000301916F00011DEC0CF020C0F0F21FC084
:1031A000EFF2EEC2F1F2320E0301956F0001D0ECA6
:1031B00006F0020181B61DD0320E0301956F0001A9
:1031C000D0EC06F00201EE2D02D00A0E01D0010E65
:1031D000EE6FF169320EF36F81B60BD0F35309E055
:1031E0000A0E0301956F0001D0EC06F00201F3070F
:1031F000F3D781B419D0320E0301956F0001D0ECE2
:1032000006F0010E0201EE6FF169320EF46F81B427
:103210000BD0F45309E00A0E0301956F0001D0ECC6
:1032200006F00201F407F3D782BA26D0928880A86C
:1032300023D04D5221E1050E0301956F0001D0EC22
:1032400006F03C0ED8800201EE55205209E11F5CC9
:1032500001E006E2EE511F26000E20224D6A02D048
:10326000010E4D6E280E0301956F0001D0EC06F0A3
:1032700082AAFED727D00201928880B824D082AAE1
:1032800022D04D5220E1050E0301956F0001D0ECD4
:1032900006F0205205E10201EE511F5C08E3000137
:1032A0000201EE511F5E000E205A4D6A02D0010E3F
:1032B0004D6E280E0301956F0001D0EC06F0928848
:1032C00080A8FDD7020182AA04D0928880A801D0EC
:1032D0004D6A81BCF9D0F2B1F7D0140E0301956F9D
:1032E0000001D0EC06F081BCEDD00201F281EC517E
:1032F0001F5C04E1ED51205CD8B499D0205203E169
:103300001F503C0803E2206A3C0E1F6E1FC0F5F2FE
:10331000F250006EF29EAA6A140EA96EF5C2A8FFC2
:10332000A69CA69EA6840F01550EA76EAA0EA76E98
:10333000A682A6B2FED7A6940050F21220C0F5F2E3
:10334000F2CF00F0F29EAA6A150EA96E20C0A8FF67
:10335000A69CA69EA684550EA76EAA0EA76EA68250
:10336000A6B2FED7A6940050F212010E0301946F8C
:1033700000012DEC07F0010E0301916F926F000127
:10338000C4EC07F0160EF66E070EF76E25EC08F08B
:10339000010E0301916F020E926F0001C4EC07F061
:1033A000260EF66E070EF76E030E0301916F0001F5
:1033B0001DEC0CF0100EE96E20C092F31FC091F3CB
:1033C00032EC0CF02C0EF66E070EF76E070E0301B2
:1033D000916F00011DEC0CF081BC07D00A0E0301B7
:1033E000956F0001D0EC06F0F7D7010E0301916F45
:1033F000020E926F0001C4EC07F0340EF66E070E59
:10340000F76E25EC08F081BCFED7140E0301956F12
:103410000001D0EC06F081ACFED7320E0301956FAF
:103420000001D0EC06F019EC11F03ED0020181BC95
:1034300008D00A0E0301956F0001D0EC06F00201DE
:10344000F6D7010E0301946F00012DEC07F0010E79
:103450000301916F926F0001C4EC07F0460EF66E07
:10346000070EF76E25EC08F0010E0301916F020EB6
:10347000926F0001C4EC07F0500EF66E070EF76E67
:1034800025EC08F081BCFED7140E0301956F0001F6
:10349000D0EC06F081ACFED7320E0301956F00012F
:1034A000D0EC06F019EC11F0010E0301946F00014D
:1034B0002DEC07F0640E0301956F0001D0EC06F0CF
:1034C00010D003D00201F291000181AC03D00201BF
:1034D000F2910001010E0301956F0001D0EC06F09E
:1034E00006D671EF39F003018C698B69010E8D6F7F
:1034F0008E698A51865D08E303E18551895D04E2A6
:103500008AC386F389C385F38651885D08E303E1A6
:103510008751855D04E288C386F387C385F381B64E
:1035200022D0320E956F0001D0EC06F003018D2DF4
:1035300003D00A0E8D6F08D08D510A0803E1640E86
:103540008D6F02D0010E8D6F8E69320E8F6F81B636
:103550000AD08F5308E00A0E956F0001D0EC06F0F8
:1035600003018F07F4D781B417D0320E956F000195
:10357000D0EC06F0010E03018D6F8E69320E906F54
:1035800081B40AD0905308E00A0E956F0001D0EC88
:1035900006F003019007F4D782BA31D0928880A850
:1035A0002ED0050E956F0001D0EC06F003018D5171
:1035B000895D006E000E8A59036E00C001F08651CD
:1035C000035C09E303E18551015C05E38D51852727
:1035D000000E86230BD086518A5D08E303E18951F2
:1035E000855D04E28AC386F389C385F3280E956F4F
:1035F0000001D0EC06F082AAFED731D003019288F8
:1036000080B82ED082AA2CD0050E956F0001D0EC88
:1036100006F003018D518725016E000E8821036E8F
:103620000350865D09E303E10150855D05E38D519B
:10363000855F000E865B0BD08851865D08E303E151
:103640008551875D04E288C386F387C385F3280E1E
:10365000956F0001D0EC06F0928880A8FDD7030199
:103660008B51855D06E18C51865D03E18E518D5D48
:1036700070E0010E946F00012DEC07F0320E030193
:10368000956F0001D0EC06F0010E0301916F926F6F
:103690000001C4EC07F003018D2D13D084C3EAFFB1
:1036A00083C3E9FF00014FEC10F0A80EF66E050E83
:1036B000F76E040E0301916F00011DEC0CF028D091
:1036C00003018D510A0813E184C3EAFF83C3E9FFB4
:1036D00000014FEC10F0B00EF66E050EF76E040E02
:1036E0000301916F00011DEC0CF012D0030184C3A3
:1036F000EAFF83C3E9FF00014FEC10F0B80EF66E4D
:10370000050EF76E040E0301916F00011DEC0CF025
:10371000010E0301916F020E926F0001C4EC07F0DD
:10372000BE0EF66E050EF76E030E0301916F0001DB
:103730001DEC0CF0100EE96E86C392F385C391F375
:1037400032EC0CF086C38CF385C38BF38DC38EF300
:10375000030181BC09D0320E956F0001D0EC06F058
:1037600081ACFED709D00301050E956F0001D0ECA6
:1037700006F00301BED60001030185C301F086C334
:1037800002F000011200EACF8BF3E9CF8AF30301C4
:103790008439F009866F8627E20F876F320F896FB1
:1037A00084510F0B872787278927E90F886F882780
:1037B000882783390F0B8827892788378937891FFE
:1037C000893783510F0B89278637070E856F0A0EBD
:1037D00088078927FDE387078827FDE38607872772
:1037E000FDE385078627FDE3030EEA6E850EE96E8D
:1037F000070E8A158A9DE926000EEA22E9508908FB
:1038000004E1EA50030801E18A8DEF50006E08E1FF
:103810008ABD06D08AB916D08AB702D0200E03D04E
:103820008A878A99300E0026EACF84F3E9CF83F3A2
:1038300000C09AF300010EEC08F084C3EAFF83C3D2
:10384000E9FF0301EE508AADD9D70001120081AC27
:10385000FED7320E0301956F0001D0EC06F03E0E4C
:103860000201F46F200EF56F4C0EF66F4F0EF76FDE
:10387000570EF86F200EF96F560EFA6F4F0EFB6F52
:103880004C0EFC6F540EFD6F200EFE6FFF6F030198
:10389000006F016F026F036F046B3E0E056F200E09
:1038A000066F480E076F490E086F470E096F480EE6
:1038B0000A6F200E0B6F560E0C6F4F0E0D6F4C0ED5
:1038C0000E6F540E0F6F200E106F116F126F136F6B
:1038D000146F156B3E0E166F200E176F4F0E186F7C
:1038E000560E196F450E1A6F520E1B6F4C0E1C6F41
:1038F0004F0E1D6F410E1E6F440E1F6F200E206F66
:10390000216F226F236F246F256F266B3E0E276F6A
:10391000200E286F450E296F580E2A6F490E2B6F07
:10392000540E2C6F2D0E2D6F3E0E2E6F4E0E2F6FE0
:10393000450E306F580E316F540E326F200E336FBC
:10394000346F356F366F376B020E0201ED6FF40E78
:10395000EC6F030EEF6F050EEE6F030EF16F160E98
:10396000F06F030EF36F270EF26F040E0301386F32
:10397000396B3A693A51395D32E0010E946F0001BA
:103980002DEC07F0010E0301916F926F0001C4EC62
:1039900007F05C0EF66E070EF76E25EC08F0010ED0
:1039A0000301916F020E926F0001C4EC07F0D890F2
:1039B00003013935036AEC0FE96E020E0320EA6E4B
:1039C000ECCF84F3ED52EFCF83F384C3EAFF83C3DC
:1039D000E9FF00014FEC10F039C33AF3030182BA5A
:1039E00017D0928880A814D0050E956F0001D0ECF6
:1039F00006F00301392B3851395D01E3396B82AA96
:103A0000FED7140E956F0001D0EC06F01BD0030119
:103A1000928880B818D082AA16D0050E956F000142
:103A2000D0EC06F00301395304E1010E385D396F23
:103A300001D03907928880A8FDD7140E956F000138
:103A4000D0EC06F0030181BC69EF23F0140E956FF2
:103A50000001D0EC06F081BC68EF23F081ACFED70A
:103A6000320E0301956F0001D0EC06F003013953CB
:103A7000D8A4FAD14C0E3B6F560E3C6F200E3D6F12
:103A8000520E3E6F3A0E3F6F406B4C0E416F560E1A
:103A9000426F200E436F590E446F3A0E456F466BCE
:103AA0004C0E476F560E486F200E496F420E4A6FFC
:103AB0003A0E4B6F4C6BF2CF83F3F29EAA6A050E5F
:103AC000A96EA69CA69EA680A85083BFF28E846F86
:103AD000F2CF85F3F29EAA6A040EA96EA69CA69E5A
:103AE000A680A85085BFF28E866F84C34EF386C32E
:103AF0004DF3F2CF87F3F29EAA6A090EA96EA69C37
:103B0000A69EA680A85087BFF28E886FF2CF89F359
:103B1000F29EAA6A080EA96EA69CA69EA680A85030
:103B200089BFF28E8A6F88C350F38AC34FF3F2CFF6
:103B30008BF3F29EAA6A470EA96EA69CA69EA6804B
:103B4000A8508BBFF28E8C6FF2CF8DF3F29EAA6AD3
:103B5000460EA96EA69CA69EA680A8508DBFF28E8A
:103B60008E6F8CC352F38EC351F34E51000805E2A1
:103B7000FF0A08E14D51900805E34E5306E14D510F
:103B8000630803E34E6BC80E4D6F5051000805E209
:103B9000FF0A08E14F51900805E3505306E14F51E9
:103BA000630803E3506BC80E4F6F5251000805E2E3
:103BB000FF0A08E15151900805E3525306E15151C3
:103BC000630803E3526BC80E516F010E946F00013E
:103BD0002DEC07F0010E0301916F926F0001C4EC10
:103BE00007F06E0EF66E070EF76E25EC08F0040E69
:103BF0000301836FC80E956F0001D0EC06F003013E
:103C0000832FF8D7030E846F3B0E836F4EC386F36A
:103C10004DC385F3886B640E876F010E8A6F900E1B
:103C2000896F000160DC02C04EF301C04DF3030E4A
:103C30000301846F410E836F50C386F34FC385F336
:103C4000886B640E876F010E8A6F900E896F00017A
:103C50004ADC02C050F301C04FF3030E0301846F2E
:103C6000470E836F52C386F351C385F3886B640E8E
:103C7000876F010E8A6F900E896F000134DC02C0DD
:103C800052F301C051F34DC383F3F250006EF29E24
:103C9000AA6A040EA96E83C3A8FFA69CA69EA6844A
:103CA0000F01550EA76EAA0EA76EA682A6B2FED76A
:103CB000A6940050F2124EC383F3F2CF00F0F29EAE
:103CC000AA6A050EA96E4EC3A8FFA69CA69EA6844E
:103CD000550EA76EAA0EA76EA682A6B2FED7A69410
:103CE0000050F2124FC383F3F2CF00F0F29EAA6AA3
:103CF000080EA96E4FC3A8FFA69CA69EA684550ECB
:103D0000A76EAA0EA76EA682A6B2FED7A6940050F2
:103D1000F21250C383F3F2CF00F0F29EAA6A090EAA
:103D2000A96E50C3A8FFA69CA69EA684550EA76E9A
:103D3000AA0EA76EA682A6B2FED7A6940050F212D3
:103D400051C383F3F2CF00F0F29EAA6A460EA96E29
:103D500051C3A8FFA69CA69EA684550EA76EAA0EC8
:103D6000A76EA682A6B2FED7A6940050F21252C346
:103D700083F3F2CF00F0F29EAA6A470EA96E52C3F7
:103D8000A8FFA69CA69EA684550EA76EAA0EA76E97
:103D9000A682A6B2FED7A6940050F2124EC3ADF290
:103DA0004DC3ACF250C3AFF24FC3AEF252C3B1F247
:103DB00051C3B0F2010E0301946F00012DEC07F026
:103DC000010E0301916F926F0001C4EC07F0800EA9
:103DD000F66E070EF76E25EC08F0010E0301916FE9
:103DE000020E926F0001C4EC07F0100EE96E4EC394
:103DF00084F34DC383F3C7DC3A0E03019A6F0001CD
:103E00000EEC08F0100EE96E50C384F34FC383F339
:103E1000BADC3A0E03019A6F00010EEC08F0100EA6
:103E2000E96E52C384F351C383F3ADDC9D0EF66E8D
:103E3000070EF76E060E0301916F00011DEC0CF0EA
:103E400081BCFED7140E0301956F0001D0EC06F083
:103E500081ACFED7320E0301956F0001D0EC06F065
:103E600003013A6969EF23F0392D02D2480E536FEE
:103E7000560E546F200E556F520E566F3A0E576FF6
:103E8000586B480E596F560E5A6F200E5B6F590EC5
:103E90005C6F3A0E5D6F5E6B480E5F6F560E606F23
:103EA000200E616F420E626F3A0E636F646BF2CF49
:103EB00083F3F29EAA6A0B0EA96EA69CA69EA6800C
:103EC000A85083BFF28E846FF2CF85F3F29EAA6A68
:103ED0000A0EA96EA69CA69EA680A85085BFF28E4B
:103EE000866F84C366F386C365F3F2CF87F3F29ED1
:103EF000AA6A0D0EA96EA69CA69EA680A85087BF92
:103F0000F28E886FF2CF89F3F29EAA6A0C0EA96E28
:103F1000A69CA69EA680A85089BFF28E8A6F88C3F1
:103F200068F38AC367F3F2CF8BF3F29EAA6A0F0E8F
:103F3000A96EA69CA69EA680A8508BBFF28E8C6F01
:103F4000F2CF8DF3F29EAA6A0E0EA96EA69CA69ED3
:103F5000A680A8508DBFF28E8E6F8CC36AF38EC37D
:103F600069F36651010805E2FF0A08E16551580846
:103F700005E3665307E16551F90804E3010E666F36
:103F8000E00E656F6851010805E2FF0A08E167511C
:103F9000580805E3685307E16751F90804E3010E87
:103FA000686FE00E676F6A51010805E2FF0A08E1D9
:103FB0006951580805E36A5307E16951F90804E3B8
:103FC000010E6A6FE00E696F010E946F00012DEC17
:103FD00007F0010E0301916F926F0001C4EC07F02E
:103FE000A40EF66E070EF76E25EC08F0040E030122
:103FF000836FC80E956F0001D0EC06F00301832F8C
:10400000F8D7030E846F530E836F66C386F365C3C0
:1040100085F3886BFA0E876F020E8A6F580E896FD0
:10402000000173EC1AF002C066F301C065F3030EE1
:104030000301846F590E836F68C386F367C385F3EA
:10404000886BFA0E876F020E8A6F580E896F000117
:1040500073EC1AF002C068F301C067F3030E0301AA
:10406000846F5F0E836F6AC386F369C385F3886BC1
:10407000FA0E876F020E8A6F580E896F000173EC7B
:104080001AF002C06AF301C069F365C383F3F2500A
:10409000006EF29EAA6A0A0EA96E83C3A8FFA69CB0
:1040A000A69EA6840F01550EA76EAA0EA76EA68225
:1040B000A6B2FED7A6940050F21266C383F3F2CFE5
:1040C00000F0F29EAA6A0B0EA96E66C3A8FFA69C1A
:1040D000A69EA684550EA76EAA0EA76EA682A6B2AD
:1040E000FED7A6940050F21267C383F3F2CF00F01C
:1040F000F29EAA6A0C0EA96E67C3A8FFA69CA69E94
:10410000A684550EA76EAA0EA76EA682A6B2FED7EB
:10411000A6940050F21268C383F3F2CF00F0F29E2F
:10412000AA6A0D0EA96E68C3A8FFA69CA69EA684C7
:10413000550EA76EAA0EA76EA682A6B2FED7A694AB
:104140000050F21269C383F3F2CF00F0F29EAA6A24
:104150000E0EA96E69C3A8FFA69CA69EA684550E46
:10416000A76EAA0EA76EA682A6B2FED7A69400508E
:10417000F2126AC383F3F2CF00F0F29EAA6A0F0E26
:10418000A96E6AC3A8FFA69CA69EA684550EA76E1C
:10419000AA0EA76EA682A6B2FED7A6940050F2126F
:1041A00066C3A7F265C3A6F268C3A9F267C3A8F203
:1041B0006AC3ABF269C3AAF2010E0301946F000156
:1041C0002DEC07F0010E0301916F926F0001C4EC1A
:1041D00007F0B60EF66E070EF76E25EC08F0010E2E
:1041E0000301916F020E926F0001C4EC07F0100EF4
:1041F000E96E66C384F365C383F3C3EC1BF03A0E28
:1042000003019A6F00010EEC08F0100EE96E68C30E
:1042100084F367C383F3C3EC1BF03A0E03019A6F78
:1042200000010EEC08F0100EE96E6AC384F369C356
:1042300083F3C3EC1BF0D30EF66E070EF76E060E7B
:104240000301916F00011DEC0CF081BCFED7140E30
:104250000301956F0001D0EC06F081ACFED7320E61
:104260000301956F0001D0EC06F003013A6931D2E9
:1042700039510208D8A4F6D14F0E6B6F4C0E6C6FFB
:10428000200E6D6F520E6E6F3A0E6F6F706B4F0E89
:10429000716F4C0E726F200E736F590E746F3A0E61
:1042A000756F766B4F0E776F4C0E786F200E796FAF
:1042B000420E7A6F3A0E7B6F7C6BF2CF83F3F29EE5
:1042C000AA6A410EA96EA69CA69EA680A85083BF8E
:1042D000F28E846FF2CF85F3F29EAA6A400EA96E29
:1042E000A69CA69EA680A85085BFF28E866F84C32A
:1042F0007EF386C37DF3F2CF87F3F29EAA6A430E64
:10430000A96EA69CA69EA680A85087BFF28E886F35
:10431000F2CF89F3F29EAA6A420EA96EA69CA69ECF
:10432000A680A85089BFF28E8A6F88C380F38AC3A3
:104330007FF3F2CF8BF3F29EAA6A450EA96EA69C7C
:10434000A69EA680A8508BBFF28E8C6FF2CF8DF305
:10435000F29EAA6A440EA96EA69CA69EA680A850AC
:104360008DBFF28E8E6F8CC382F38EC381F37E512C
:1043700000080BE2FF0A06E17D512C0806E202D09C
:1043800000A003D07E6B1E0E7D6F805100080BE2F3
:10439000FF0A06E17F512C0806E202D000A003D0FC
:1043A000806B1E0E7F6F825100080BE2FF0A06E150
:1043B00081512C0806E202D000A003D0826B1E0EB1
:1043C000816F010E946F00012DEC07F0010E0301C7
:1043D000916F926F0001C4EC07F0DA0EF66E070ED3
:1043E000F76E25EC08F0040E0301836FC80E956F7D
:1043F0000001D0EC06F00301832FF8D7030E846F81
:104400006B0E836F7EC386F37DC385F3886B876BEA
:10441000010E8A6F2C0E896F000173EC1AF002C036
:104420007EF301C07DF3030E0301846F710E836F71
:1044300080C386F37FC385F3886B876B010E8A6F19
:104440002C0E896F000173EC1AF002C080F301C0DA
:104450007FF3030E0301846F770E836F82C386F3AD
:1044600081C385F3886B876B010E8A6F2C0E896F71
:10447000000173EC1AF002C082F301C081F37DC326
:1044800083F3F250006EF29EAA6A400EA96E83C3B7
:10449000A8FFA69CA69EA6840F01550EA76EAA0E85
:1044A000A76EA682A6B2FED7A6940050F2127EC3D3
:1044B00083F3F2CF00F0F29EAA6A410EA96E7EC38A
:1044C000A8FFA69CA69EA684550EA76EAA0EA76E50
:1044D000A682A6B2FED7A6940050F2127FC383F341
:1044E000F2CF00F0F29EAA6A420EA96E7FC3A8FF27
:1044F000A69CA69EA684550EA76EAA0EA76EA6829F
:10450000A6B2FED7A6940050F21280C383F3F2CF76
:1045100000F0F29EAA6A430EA96E80C3A8FFA69C73
:10452000A69EA684550EA76EAA0EA76EA682A6B258
:10453000FED7A6940050F21281C383F3F2CF00F0AD
:10454000F29EAA6A440EA96E81C3A8FFA69CA69EED
:10455000A684550EA76EAA0EA76EA682A6B2FED797
:10456000A6940050F21282C383F3F2CF00F0F29EC1
:10457000AA6A450EA96E82C3A8FFA69CA69EA68421
:10458000550EA76EAA0EA76EA682A6B2FED7A69457
:104590000050F2127EC3B3F27DC3B2F280C3B5F213
:1045A0007FC3B4F282C3B7F281C3B6F2010E030136
:1045B000946F00012DEC07F0010E0301916F926FD3
:1045C0000001C4EC07F0EC0EF66E070EF76E25EC5A
:1045D00008F0010E0301916F020E926F0001C4EC0E
:1045E00007F0100EE96E7EC384F37DC383F3C3EC42
:1045F0001BF03A0E03019A6F00010EEC08F0100E4A
:10460000E96E80C384F37FC383F3C3EC1BF03A0EDF
:1046100003019A6F00010EEC08F0100EE96E82C3E0
:1046200084F381C383F3C3EC1BF0090EF66E080E0E
:10463000F76E060E0301916F00011DEC0CF081BCBA
:10464000FED7140E0301956F0001D0EC06F081AC8B
:10465000FED7320E0301956F0001D0EC06F0030186
:104660003A6937D03951030834E1010E946F0001E3
:104670002DEC07F0010E0301916F926F0001C4EC65
:1046800007F0100EF66E080EF76E25EC08F0010E1E
:104690000301916F020E926F0001C4EC07F0220E2D
:1046A000F66E080EF76E25EC08F0040E0301836F1A
:1046B000FA0E956F0001D0EC06F00301832FF8D7B6
:1046C000010E946F00012DEC07F019EC11F009D0E8
:1046D0000301010E956F0001D0EC06F00301BAEF63
:1046E0001CF0000177EF39F0320E0301956F0001E5
:1046F000D0EC06F081ACFED7F2CFF7F2F29EAA6AB8
:10470000180EA96EA69CA69EA680A8500201F7BF0F
:10471000F28EF86FF2CFF9F2F29EAA6A170EA96E26
:10472000A69CA69EA680A850F9BFF28EFA6FF8C28A
:10473000EDF2FAC2ECF2ED51020809E2FF0A03E1E0
:10474000EC51E70804E2030EED6FE70EEC6FEDC2EB
:10475000EFF2ECC2EEF2010EF06FF269F169F3696B
:10476000F4910301946F00012DEC07F0640E030136
:10477000956F0001D0EC06F00201ED51020809E24C
:10478000FF0A03E1EC51E70804E2030EED6FE70EC8
:10479000EC6FF151EC5D06E1F251ED5D03E1F35197
:1047A000F05D5DE0010E0301946F00012DEC07F058
:1047B000010E0301916F926F0001C4EC07F002013A
:1047C000F02D09D0340EF66E080EF76E000125ECC0
:1047D00008F014D00201F0510A0809E1460EF66E05
:1047E000080EF76E000125EC08F008D00201580E03
:1047F000F66E080EF76E000125EC08F0010E0301BD
:10480000916F020E926F0001C4EC07F06A0EF66E13
:10481000080EF76E030E0301916F00011DEC0CF002
:10482000100EE96EEDC292F3ECC291F332EC0CF093
:10483000700EF66E080EF76E070E0301916F000101
:104840001DEC0CF0EDC2F2F2ECC2F1F2F0C2F3F2A8
:10485000320E0301956F0001D0EC06F0020181B623
:1048600024D0320E0301956F0001D0EC06F0020156
:10487000F02D03D00A0EF06F08D0F0510A0803E1C2
:10488000640EF06F02D0010EF06FF369320EF56F17
:1048900081B60BD0F55309E00A0E0301956F0001B4
:1048A000D0EC06F00201F507F3D781B419D0320E2F
:1048B0000301956F0001D0EC06F0010E0201F06FCC
:1048C000F369320EF66F81B40BD0F65309E00A0E8D
:1048D0000301956F0001D0EC06F00201F607F3D753
:1048E00082BA2FD0928880A82CD04D522AE1050E92
:1048F0000301956F0001D0EC06F0E70ED8800201AD
:10490000F055006E030ED8A0E806036E00C001F05B
:10491000ED51035C0AE303E1EC51015C06E3F05165
:10492000EC27000EED234D6A02D0010E4D6E280ECD
:104930000301956F0001D0EC06F082AAFED725D0C6
:104940000201928880B822D082AA20D04D521EE166
:10495000050E0301956F0001D0EC06F00201ED5346
:1049600003E1F051EC5D06E3F051EC5F000EED5B0E
:104970004D6A02D0010E4D6E280E0301956F0001A5
:10498000D0EC06F0928880A8FDD7020182AA04D05C
:10499000928880A801D04D6A81BCFDD0F4B1FBD0D3
:1049A000140E0301956F0001D0EC06F081BCF1D02C
:1049B0000201F481EE51EC5D04E1EF51ED5DD8B4FC
:1049C0009DD0ED51020809E2FF0A03E1EC51E7082E
:1049D00004E2030EED6FE70EEC6FECC2F7F2F2505B
:1049E000006EF29EAA6A170EA96EF7C2A8FFA69CD7
:1049F000A69EA6840F01550EA76EAA0EA76EA682CC
:104A0000A6B2FED7A6940050F212EDC2F7F2F2CF92
:104A100000F0F29EAA6A180EA96EEDC2A8FFA69C2D
:104A2000A69EA684550EA76EAA0EA76EA682A6B253
:104A3000FED7A6940050F212010E0301946F0001FC
:104A40002DEC07F0010E0301916F926F0001C4EC91
:104A500007F0780EF66E080EF76E25EC08F0010EE2
:104A60000301916F020E926F0001C4EC07F0860EF5
:104A7000F66E080EF76E030E0301916F00011DEC38
:104A80000CF0100EE96EEDC292F3ECC291F332EC31
:104A90000CF08C0EF66E080EF76E070E0301916F88
:104AA00000011DEC0CF081BC07D00A0E0301956FCC
:104AB0000001D0EC06F0F7D7010E0301916F020E52
:104AC000926F0001C4EC07F0940EF66E080EF76EBC
:104AD00025EC08F081BCFED7140E0301956F000190
:104AE000D0EC06F081ACFED7320E0301956F0001C9
:104AF000D0EC06F019EC11F03ED0020181BC08D0D8
:104B00000A0E0301956F0001D0EC06F00201F6D702
:104B1000010E0301946F00012DEC07F0010E03015B
:104B2000916F926F0001C4EC07F0A60EF66E080EAE
:104B3000F76E25EC08F0010E0301916F020E926FE3
:104B40000001C4EC07F0B00EF66E080EF76E25EC0F
:104B500008F081BCFED7140E0301956F0001D0EC64
:104B600006F081ACFED7320E0301956F0001D0EC48
:104B700006F019EC11F0010E0301946F00012DEC09
:104B800007F0640E0301956F0001D0EC06F010D021
:104B900003D00201F491000181AC03D00201F49131
:104BA0000001010E0301956F0001D0EC06F0E4D581
:104BB0007DEF39F0320E0301956F0001D0EC06F065
:104BC00081ACFED7F2CFF7F2F29EAA6A1B0EA96E55
:104BD000A69CA69EA680A8500201F7BFF28EF86F91
:104BE000F2CFF9F2F29EAA6A1A0EA96EA69CA69EB0
:104BF000A680A850F9BFF28EFA6FF8C2EDF2FAC2A1
:104C0000ECF2ED51020809E2FF0A03E1EC51E7087A
:104C100004E2030EED6FE70EEC6FEDC2EFF2ECC2B3
:104C2000EEF2010EF06FF269F169F369F49103019C
:104C3000946F00012DEC07F0640E0301956F0001E5
:104C4000D0EC06F00201ED51020809E2FF0A03E18F
:104C5000EC51E70804E2030EED6FE70EEC6FF15143
:104C6000EC5D06E1F251ED5D03E1F351F05D5DE0D5
:104C7000010E0301946F00012DEC07F0010E0301FA
:104C8000916F926F0001C4EC07F00201F02D09D082
:104C9000BC0EF66E080EF76E000125EC08F014D07D
:104CA0000201F0510A0809E1CE0EF66E080EF76E09
:104CB000000125EC08F008D00201E00EF66E080EA7
:104CC000F76E000125EC08F0010E0301916F020E52
:104CD000926F0001C4EC07F0F20EF66E080EF76E4C
:104CE000030E0301916F00011DEC0CF0100EE96E34
:104CF000EDC292F3ECC291F332EC0CF0F80EF66ECA
:104D0000080EF76E070E0301916F00011DEC0CF009
:104D1000EDC2F2F2ECC2F1F2F0C2F3F2320E030194
:104D2000956F0001D0EC06F0020181B624D0320E5E
:104D30000301956F0001D0EC06F00201F02D03D0C5
:104D40000A0EF06F08D0F0510A0803E1640EF06F0C
:104D500002D0010EF06FF369320EF56F81B60BD001
:104D6000F55309E00A0E0301956F0001D0EC06F03F
:104D70000201F507F3D781B419D0320E0301956F04
:104D80000001D0EC06F0010E0201F06FF369320E63
:104D9000F66F81B40BD0F65309E00A0E0301956F4C
:104DA0000001D0EC06F00201F607F3D782BA2FD04B
:104DB000928880A82CD04D522AE1050E0301956FF0
:104DC0000001D0EC06F0E70ED8800201F055006E2D
:104DD000030ED8A0E806036E00C001F0ED51035C9D
:104DE0000AE303E1EC51015C06E3F051EC27000E0D
:104DF000ED234D6A02D0010E4D6E280E0301956F12
:104E00000001D0EC06F082AAFED725D002019288DC
:104E100080B822D082AA20D04D521EE1050E030197
:104E2000956F0001D0EC06F00201ED5303E1F05163
:104E3000EC5D06E3F051EC5F000EED5B4D6A02D0D5
:104E4000010E4D6E280E0301956F0001D0EC06F0A7
:104E5000928880A8FDD7020182AA04D0928880A8F7
:104E600001D04D6A81BCFDD0F4B1FBD0140E03011A
:104E7000956F0001D0EC06F081BCF1D00201F48105
:104E8000EE51EC5D04E1EF51ED5DD8B49DD0ED51F4
:104E9000020809E2FF0A03E1EC51E70804E2030E0D
:104EA000ED6FE70EEC6FECC2F7F2F250006EF29E7F
:104EB000AA6A1A0EA96EF7C2A8FFA69CA69EA6848F
:104EC0000F01550EA76EAA0EA76EA682A6B2FED738
:104ED000A6940050F212EDC2F7F2F2CF00F0F29E6B
:104EE000AA6A1B0EA96EEDC2A8FFA69CA69EA68468
:104EF000550EA76EAA0EA76EA682A6B2FED7A694DE
:104F00000050F212010E0301946F00012DEC07F026
:104F1000010E0301916F926F0001C4EC07F0000EC7
:104F2000F66E090EF76E25EC08F0010E0301916F85
:104F3000020E926F0001C4EC07F0120EF66E090E1D
:104F4000F76E030E0301916F00011DEC0CF0100EC3
:104F5000E96EEDC292F3ECC291F332EC0CF0180E54
:104F6000F66E090EF76E070E0301916F00011DEC3E
:104F70000CF081BC07D00A0E0301956F0001D0EC44
:104F800006F0F7D7010E0301916F020E926F000138
:104F9000C4EC07F0200EF66E090EF76E25EC08F053
:104FA00081BCFED7140E0301956F0001D0EC06F012
:104FB00081ACFED7320E0301956F0001D0EC06F0F4
:104FC00019EC11F03ED0020181BC08D00A0E030199
:104FD000956F0001D0EC06F00201F6D7010E030137
:104FE000946F00012DEC07F0010E0301916F926F99
:104FF0000001C4EC07F0320EF66E090EF76E25ECD8
:1050000008F0010E0301916F020E926F0001C4ECD3
:1050100007F03C0EF66E090EF76E25EC08F081BC29
:10502000FED7140E0301956F0001D0EC06F081ACA1
:10503000FED7320E0301956F0001D0EC06F019EC9B
:1050400011F0010E0301946F00012DEC07F0640EC6
:105050000301956F0001D0EC06F010D003D00201DF
:10506000F491000181AC03D00201F4910001010E22
:105070000301956F0001D0EC06F0E4D583EF39F021
:10508000320E0301956F0001D0EC06F081ACFED723
:10509000F2CFF7F2F29EAA6A1E0EA96EA69CA69EF9
:1050A000A680A8500201F7BFF28EF86FF2CFF9F296
:1050B000F29EAA6A1D0EA96EA69CA69EA680A85066
:1050C000F9BFF28EFA6FF8C2EDF2FAC2ECF2ED53CC
:1050D00003E1EC51640803E2ED6B640EEC6FEDC28A
:1050E000EFF2ECC2EEF2010EF06FF269F169F369D2
:1050F000F4910301946F00012DEC07F0640E03019D
:10510000956F0001D0EC06F00201ED5303E1EC5184
:10511000640803E2ED6B640EEC6FF151EC5D06E1A7
:10512000F251ED5D03E1F351F05D51E0010E030139
:10513000946F00012DEC07F0010E0301916F926F47
:105140000001C4EC07F00201F02D09D0480EF66E04
:10515000090EF76E000125EC08F008D002015A0E86
:10516000F66E090EF76E000125EC08F0010E030142
:10517000916F020E926F0001C4EC07F06C0EF66E98
:10518000090EF76E030E0301916F00011DEC0CF088
:10519000100EE96EEDC292F3ECC291F332EC0CF01A
:1051A000720EF66E090EF76E080E0301916F000184
:1051B0001DEC0CF0EDC2F2F2ECC2F1F2F0C2F3F22F
:1051C000320E0301956F0001D0EC06F0020181B6AA
:1051D0001DD0320E0301956F0001D0EC06F00201E4
:1051E000F02D02D00A0E01D0010EF06FF369320EDD
:1051F000F56F81B60BD0F55309E00A0E0301956FE8
:105200000001D0EC06F00201F507F3D781B419D004
:10521000320E0301956F0001D0EC06F0010E020181
:10522000F06FF369320EF66F81B40BD0F65309E0DC
:105230000A0E0301956F0001D0EC06F00201F6079B
:10524000F3D782BA26D0928880A823D04D5221E18C
:10525000050E0301956F0001D0EC06F0640ED880B6
:105260000201F055ED5309E1EC5D01E006E2F05179
:10527000EC27000EED234D6A02D0010E4D6E280E74
:105280000301956F0001D0EC06F082AAFED725D06D
:105290000201928880B822D082AA20D04D521EE10D
:1052A000050E0301956F0001D0EC06F00201ED53ED
:1052B00003E1F051EC5D06E3F051EC5F000EED5BB5
:1052C0004D6A02D0010E4D6E280E0301956F00014C
:1052D000D0EC06F0928880A8FDD7020182AA04D003
:1052E000928880A801D04D6A81BCF5D0F4B1F3D08A
:1052F000140E0301956F0001D0EC06F081BCE9D0DB
:105300000201F481EE51EC5D04E1EF51ED5DD8B4A2
:1053100095D0ED5303E1EC51640803E2ED6B640EAC
:10532000EC6FECC2F7F2F250006EF29EAA6A1D0E0C
:10533000A96EF7C2A8FFA69CA69EA6840F01550ED3
:10534000A76EAA0EA76EA682A6B2FED7A69400509C
:10535000F212EDC2F7F2F2CF00F0F29EAA6A1E0E30
:10536000A96EEDC2A8FFA69CA69EA684550EA76EA8
:10537000AA0EA76EA682A6B2FED7A6940050F2127D
:10538000010E0301946F00012DEC07F0010E0301E3
:10539000916F926F0001C4EC07F07C0EF66E090E5F
:1053A000F76E25EC08F0010E0301916F020E926F6B
:1053B0000001C4EC07F0200E03019A6F00010EEC0F
:1053C00008F0100EE96EEDC292F3ECC291F332ECEC
:1053D0000CF0900EF66E090EF76E080E0301916F39
:1053E00000011DEC0CF081BC07D00A0E0301956F83
:1053F0000001D0EC06F0F7D7010E0301916F020E09
:10540000926F0001C4EC07F09A0EF66E090EF76E6B
:1054100025EC08F081BCFED7140E0301956F000146
:10542000D0EC06F081ACFED7320E0301956F00017F
:10543000D0EC06F019EC11F03ED0020181BC08D08E
:105440000A0E0301956F0001D0EC06F00201F6D7B9
:10545000010E0301946F00012DEC07F0010E030112
:10546000916F926F0001C4EC07F0AC0EF66E090E5E
:10547000F76E25EC08F0010E0301916F020E926F9A
:105480000001C4EC07F0B60EF66E090EF76E25ECBF
:1054900008F081BCFED7140E0301956F0001D0EC1B
:1054A00006F081ACFED7320E0301956F0001D0ECFF
:1054B00006F019EC11F0010E0301946F00012DECC0
:1054C00007F0640E0301956F0001D0EC06F010D0D8
:1054D00003D00201F491000181AC03D00201F491E8
:1054E0000001010E0301956F0001D0EC06F00CD60F
:1054F00089EF39F0015072C379F3640E03017A6FBA
:1055000000019DEC0FF000C072F30150300E08E175
:10551000030173A310D073B70ED073B9200E04D05B
:105520000301739773997381012601C09AF30001F7
:105530000EEC08F0030172C379F30A0E7A6F0001D2
:105540009DEC0FF000C072F30150300E08E1030132
:1055500073B70BD073A109D073B9200E00010126D7
:1055600001C09AF30EEC08F00301300E722772C3EB
:105570009AF300010EEC08F0120081ACFED7320E57
:105580000301956F0001D0EC06F0200E0201EC6FD4
:10559000240EED6F280EEE6F2C0EEF6F300EF06FB5
:1055A0003E0EFD6F200EFE6F540EFF6F490E03017D
:1055B000006F4D0E016F450E026F520E036F200EED
:1055C000046F310E056F200E066F076F086F096FAD
:1055D0000A6F0B6F0C6B3E0E0D6F200E0E6F540E8C
:1055E0000F6F490E106F4D0E116F450E126F520E58
:1055F000136F200E146F320E156F200E166F176F7B
:10560000186F196F1A6F1B6F1C6B3E0E1D6F200EEB
:105610001E6F540E1F6F490E206F4D0E216F450EE9
:10562000226F520E236F200E246F330E256F200E33
:10563000266F276F286F296F2A6F2B6F2C6B3E0EFA
:105640002D6F200E2E6F540E2F6F490E306F4D0EA2
:10565000316F450E326F520E336F200E346F340EA1
:10566000356F200E366F376F386F396F3A6F3B6F7B
:105670003C6B3E0E3D6F200E3E6F540E3F6F490E49
:10568000406F4D0E416F450E426F520E436F200E1C
:10569000446F350E456F200E466F476F486F496F58
:1056A0004A6F4B6F4C6B3E0E4D6F200E4E6F450E8A
:1056B0004F6F580E506F490E516F540E526F2D0E92
:1056C000536F3E0E546F4E0E556F450E566F580E6B
:1056D000576F540E586F200E596F5A6F5B6F5C6B8B
:1056E000020E0201F26FFD0EF16F030EF46F0D0E4C
:1056F000F36F030EF66F1D0EF56F030EF86F2D0E90
:10570000F76F030EFA6F3D0EF96F030EFC6F4D0E2F
:10571000FB6F060E03015D6F5E6B5F695F515E5D3F
:1057200032E0010E946F00012DEC07F0010E030131
:10573000916F926F0001C4EC07F04C0EF66E0A0EEA
:10574000F76E25EC08F0010E0301916F020E926FC7
:105750000001C4EC07F0D89003015E35036AF10F35
:10576000E96E020E0320EA6EECCF73F3ED52EFCF39
:1057700072F373C3EAFF72C3E9FF00014FEC10F04C
:105780005EC35FF3030182BA17D0928880A814D059
:10579000050E956F0001D0EC06F003015E2B5D5104
:1057A0005E5D01E35E6B82AAFED7140E956F000169
:1057B000D0EC06F01BD00301928880B818D082AAE2
:1057C00016D0050E956F0001D0EC06F003015E5374
:1057D00004E1010E5D5D5E6F01D05E07928880A8D6
:1057E000FDD7140E956F0001D0EC06F0030181BCCB
:1057F00051D3140E956F0001D0EC06F081BC4BD351
:1058000081ACFED7320E0301956F0001D0EC06F09B
:1058100003015E51050802E140D33CD35EC360F34F
:10582000010E946F00012DEC07F0010E0301916F42
:10583000926F0001C4EC07F0010E03016025726F46
:105840005C0EF66E0A0EF76E0D0E916F00011DECE8
:105850000CF072C373F3180E0301746F0001B3EC04
:105860000FF0010E0301916F020E926F0001C4EC64
:1058700007F06C0EF66E0A0EF76E25EC08F081BC90
:10588000FED7140E0301956F0001D0EC06F081AC39
:10589000FED7320E0301956F0001D0EC06F0036ACB
:1058A00003016051EC0FE96E020E0320EA6EEFCFA8
:1058B00061F3F2CF72F3F29EAA6A61C3A9FFA69CBC
:1058C000A69EA680A85072BFF28E626F010E61255F
:1058D000736FF2CF74F3F29EAA6A73C3A9FFA69CFA
:1058E000A69EA680A85074BFF28E636F020E61253B
:1058F000736FF2CF75F3F29EAA6A73C3A9FFA69CD9
:10590000A69EA680A85075BFF28E646F030E612517
:10591000736FF2CF76F3F29EAA6A73C3A9FFA69CB7
:10592000A69EA680A85076BFF28E656F62511708BA
:1059300001E2626B63513B0801E2636B645117083B
:1059400001E2646B65513B0801E2656B62C366F37B
:1059500063C367F364C368F365C369F36A6B6B6918
:105960006C696D696E696F697091010E946F0001C9
:105970002DEC07F003016B516A5D0DE16C51625D26
:105980000AE16D51635D07E16E51645D04E16F51A1
:10599000655DD8B4EFD0010E916F926F0001C4EC39
:1059A00007F07C0EF66E0A0EF76E25EC08F0030188
:1059B0006A5314E15B0E9A6F00010EEC08F062C3AB
:1059C00072F3010E0301736F000194DD5D0E03019C
:1059D0009A6F00010EEC08F013D00301200E9A6FAD
:1059E00000010EEC08F062C372F3010E0301736F45
:1059F000000180DD200E03019A6F00010EEC08F01B
:105A00003A0E03019A6F00010EEC08F003016A2DB3
:105A10001AD05B0E9A6F00010EEC08F063C372F3AC
:105A2000010E0301736F000165DD5D0E03019A6FC6
:105A300000010EEC08F0200E03019A6F00010EEC3D
:105A400008F019D00301200E9A6F00010EEC08F047
:105A500063C372F3010E0301736F00014BDD200E6F
:105A600003019A6F00010EEC08F0200E03019A6FFB
:105A700000010EEC08F0010E0301916F020E926F0F
:105A80000001C4EC07F0820EF66E0A0EF76E25ECEC
:105A900008F003016A51020814E15B0E9A6F0001DD
:105AA0000EEC08F064C372F3010E0301736F000182
:105AB00021DD5D0E03019A6F00010EEC08F013D09A
:105AC0000301200E9A6F00010EEC08F064C372F31C
:105AD000010E0301736F00010DDD200E03019A6FAB
