:040000005BEF3AF088
:08000800046ED8CF05F0E0CF33
:1000100006F00001E9CF0CF0EACF07F0E1CF08F0DD
:10002000E2CF09F0D9CF0AF0DACF0BF0F3CF12F01C
:10003000F4CF13F0FACF14F000C00EF001C00FF0AF
:1000400002C010F003C011F09DAC2AEF00F09EBC7E
:10005000B0EF00F09DA030EF00F09EB0DEEF01F0B9
:100060000EC000F00FC001F010C002F011C003F08C
:100070000CC0E9FF07C0EAFF078E08C0E1FF09C016
:10008000E2FF0AC0D9FF0BC0DAFF12C0F3FF13C0B2
:10009000F4FF14C0FAFF045006C0E0FF05C0D8FF0B
:1000A0001000F2CF0DF0F29EF76ABC0FF66E000E54
:1000B000F7220900F5500DBEF28E120005001E0059
:1000C00032006400C8002C01F2CF0DF0F29EF76AF6
:1000D000E20FF66E000EF7220900F5500DBEF28E0B
:1000E000120001060A14283C0301C451070B006EDC
:1000F000C431016E013201321F0E01160150C525B7
:10010000E96E000EC621EA6EEFCF01F0002A01D0A1
:100110000132002EFDD700013DEF01F00301C45173
:10012000070B006EC431016E013201321F0E011641
:100130000150C625E96E000EC721EA6E016A012A48
:10014000002A01D00136002EFDD7C55303E001502F
:10015000EF1203D0011E0150EF16000149EF01F02C
:10016000C2B2FED7C4CFC3F30301C3CFC2F30101B0
:10017000765102082AE3D8907635036A570FE96E64
:10018000010E0320EA6EECCF03F0ED52EFCF01F049
:1001900003500301C35DD8B002D0010116D006E1BF
:1001A000C251015CD8A002D001010FD0D89001014A
:1001B0007635036A570FE96E010E0320EA6EC3C35A
:1001C000ECFFED52C2C3EFFF2CD07651020829E2BA
:1001D000D8907635036A570FE96E010E0320EA6E58
:1001E000ECCF03F0ED52EFCF01F00301C351035CFC
:1001F000D8B002D0010115D006E10150C25DD8A0EF
:1002000002D001010ED0D89001017635036A570F54
:10021000E96E010E0320EA6EC3C3ECFFED52C2C3C8
:10022000EFFF7651020843E3D8907635036A840FD6
:10023000E96E010E0320EA6EECCFC5F3ED52EFCF6D
:10024000C4F30301C55306E1C4518C08D8A002D001
:1002500001012DD0C353D8B402D0010128D0C2511E
:100260008C08D8B002D0010122D076C1C4F3010EAF
:10027000C66F8A0EC56F000137D701B019D076C19D
:10028000C4F3010E0301C56FC76F8A0EC66F00016C
:1002900045D701018E5102080AE38E518E2B036A65
:1002A0008B0FE96E010E0320EA6E76C1EFFF0001AD
:1002B0000101765102080DE3D8907635036A840F68
:1002C000E96E010E0320EA6EC3C3ECFFED52C2C318
:1002D000EFFF775318E17651000A000105E0010AAB
:1002E00008E0030A0BE00DD0010E0101766F00015A
:1002F00008D0020E0101766F000103D00101766B78
:1003000000011FD001017651FA0F1CE2060F000117
:10031000BAEF01F0010E0101766F14D0020E010157
:10032000766F10D0030E0101766F0CD0040E010120
:10033000766F08D0050E0101766F04D00101766B4F
:1003400001D001017651050807E1380E016EC25057
:10035000830B0110C26E09D07635006E0036FC0E9C
:100360000016C250830B0010C26EC2829E9C000118
:1003700030EF00F0E824F76AF7368F0FF66E030EC1
:10038000F7220A00F550FA6E0800F550F96E1403D2
:100390001C0324032C0334033C030301C251C40394
:1003A000F3CF01F0F4CF00F0C503F3500026C351A2
:1003B000C403F3500020026E000112000101562B0D
:1003C0000201E15304E1E25302E1E35318E0DF2BC1
:1003D000DF51130814E2DF6BE35302E0E3070FD0B1
:1003E0003B0EE36FE25302E0E20709D03B0EE26FFF
:1003F000E15302E0E10703D0D16BD26BD36BE02B6A
:10040000E051130805E2E06BB8513A0801E3B82B5C
:1004100001019A5302E19B5303E09A2BD8B49B2B22
:100420009C5307E1942D05D0955303E19D2BD8B43F
:100430009E2B9F5302E1A05303E09F2BD8B4A02B27
:100440005651310803E2010E756F566B91C1C3F32B
:1004500090C1C2F30301C56B0A0EC46F00019DDF9A
:100460000250036E01019B5D06E303E19A51015CBA
:1004700002E2010E996F9E51010810E2FF0A03E1AA
:100480009D5157080BE29C5309E1942D07D09553D9
:1004900005E1010E966F9C6F9E6B9D6BDCC2C3F3F2
:1004A000DBC2C2F30301C56B0F0EC46F000175DF21
:1004B0000250036E0101A05D05E303E19F51015C61
:1004C00001E2996B850ECF6EEE0ECE6E9E9000010E
:1004D00030EF00F0507265737320746F20455849F7
:1004E0005400507265737320746F20454E5445520A
:1004F000000045584954494E47204D454E552E2E33
:100500002E00312E50484153452053455454494EF6
:1005100047003E3E203220504841534520202020B5
:100520002020202000003E3E2033205048415345EB
:10053000202020202020202000003E3E203220507D
:1005400048415345202020202020202000003E3E0E
:1005500020332050484153452020202020202020B7
:100560000000504841534520534156454400322035
:100570005048415345003320504841534500507284
:1005800065737320454E54455220202020200000E2
:100590004E6F204368616E6765005072657373200B
:1005A000454E544552002573204E524D0000257390
:1005B00020465354000025732053554600003E3E0C
:1005C00020256C640000322E4A5549434520434F94
:1005D0004E54524F4C003E3E20454E41424C452029
:1005E00020202020202020003E3E2044495341422C
:1005F0004C4520202020202020003E3E20454E411A
:10060000424C452020202020202020003E3E204437
:10061000495341424C4520202020202020004A55AB
:10062000494345204354524C205341564544000011
:100630005354415455533A20454E41424C45202095
:1006400000005354415455533A2044495341424CBD
:1006500045200000507265737320454E544552206A
:10066000202020200000332E50575220444C592087
:100670004E4F524D0000332E50575220444C5920BB
:10068000464153540000332E50575220444C5920B9
:10069000535546410000202020256C64207365637B
:1006A0002020200044454C415920534156454421C7
:1006B0000000202020256C6420736563202020002A
:1006C000507265737320454E5445522020202020DF
:1006D00000004E6F204368616E676500507265735D
:1006E0007320454E54455200352E535441522044F8
:1006F000454C54204E524D00352E53544152204407
:10070000454C542046535400202020256C6420730F
:100710006563202020002044454C41592053415618
:10072000454421200000202020256C64207365634F
:1007300020202000507265737320454E544552208E
:100740002020202000004E6F204368616E67650006
:10075000507265737320454E54455200362E564FE5
:100760004C542053455454494E47202000004C4FD0
:100770005720564F4C542053455420202020000031
:100780004C56205341564544202020202020202034
:100790000000256C753A256C753A256C7520202073
:1007A000202020004849474820564F4C54205345AC
:1007B0005420202000004856205341564544202014
:1007C0002020202020200000256C753A256C753AE9
:1007D000256C75202020202020004F5645524C4F7C
:1007E0004144205345542020202000004F4C2053EA
:1007F0004156454420202020202020200000256C48
:10080000753A256C753A256C752020202020200033
:10081000564F4C54204D454E5520444F4E452020B8
:100820000000476F696E6720746F206E6578742EC4
:100830002E2E0000372E44525952554E20444C590A
:10084000204E4F524D00372E44525952554E20449F
:100850004C59204641535400372E44525952554E5C
:1008600020444C59205355464100202020256C64DB
:1008700020736563202020002044454C41592053BB
:10088000415645442100202020256C642073656377
:1008900020202000507265737320454E544552202D
:1008A0002020202000004E6F204368616E676500A5
:1008B000507265737320454E54455200382E445291
:1008C0005952554E20525354204E4F524D00382EFF
:1008D00044525952554E20525354204641535400CD
:1008E000382E44525952554E205253542053554697
:1008F0004100202020256C642073656320202000A7
:100900002044454C41592053415645442120202044
:100910000000202020256C642073656320202000C7
:10092000507265737320454E54455220202020207C
:1009300000004E6F204368616E67650050726573FA
:100940007320454E54455200392E44525952554E4B
:1009500020545250204E524D0000392E44525952CC
:10096000554E20545250204653540000202020253C
:100970006C6420416D707320202000002056414C93
:1009800055452053415645442120200020256C64C4
:1009900020416D7073202020000050726573732019
:1009A000454E544552202020202000004E6F204309
:1009B00068616E676500507265737320454E5445DB
:1009C0005200342E534554204F4E2054494D45205B
:1009D0004E524D00342E534554204F4E2054494D15
:1009E000452046535400342E534554204F4E205436
:1009F000494D452053554600202020256C64207326
:100A00006563202020002054494D45205341564520
:100A1000442120202000202020256C642073656361
:100A200020202000507265737320454E544552209B
:100A30002020202000004E6F204368616E67650013
:100A4000507265737320454E5445520031302E4329
:100A500059434C49432054494D4552004359434C56
:100A600049432054494D4552202564005072657316
:100A70007320746F20454E54455200004F4E203A6B
:100A800000004F46463A00004F4E202054494D4545
:100A90005220256420204F464600253032753A25E5
:100AA000303275202020202020253032753A253024
:100AB00032750000392E4155544F20524553544150
:100AC000525400003E3E204D4F44453A204155547B
:100AD0004F202020202000003E3E204D4F44453A2C
:100AE000204D414E55414C20202000003E3E204DDF
:100AF0004F44453A204155544F20202020200000EB
:100B00003E3E204D4F44453A204D414E55414C20EC
:100B1000202000004D4F44452053415645442100BC
:100B20004D4F44453A204155544F202020004D4F11
:100B300044453A204D414E55414C2000507265735A
:100B40007320454E544552202020202000004E6F37
:100B5000204368616E676500507265737320454E6F
:100B60005445520031302E554E42414C414E434582
:100B700044205452495000004C696D69743A202554
:100B8000334C752525004C494D4954205341564559
:100B9000442100004C696D69743A2025334C752559
:100BA0002500507265737320454E54455220202015
:100BB000202000004E6F204368616E676500507210
:100BC00065737320454E5445520031312E53454CC8
:100BD0004543542043542054595045003E2025336A
:100BE0006C754120282532753A3129202000435464
:100BF000205341564544210043543A20256C754109
:100C0000202825753A312900507265737320454EAE
:100C1000544552202020202000004E6F2043686160
:100C20006E676500507265737320454E54455200DF
:100C300031322E504920544553542D495240316D84
:100C40000000203A2025332E3166204D4F686D205C
:100C500020200000495240316D2053415645442127
:100C6000000056616C75653A2025332E3166204DA3
:100C70004F686D00507265737320454E5445522085
:100C8000202020200000456E7465722049524031BA
:100C9000306D696E20200000203A2025332E316609
:100CA000204D4F686D202020000050492056414CB7
:100CB000554553205341564544210000316D3A2596
:100CC000332E31662031306D3A25332E31660000E7
:100CD000507265737320454E5445522020202020C9
:100CE000000050493D25332E326620524553554C65
:100CF00054200000474F4F4420494E53554C415417
:100D0000494F4E200000504F4F5220494E53554CF2
:100D10004154494F4E20000042414420494E535512
:100D20004C4154494F4E202000004E45572051421F
:100D30004954524F4E494353000044494749544196
:100D40004C20535441525445520044494749544160
:100D50004C2053544152544552005365712E204348
:100D60006865636B696E672E2E2E0000504F5745E5
:100D700052204F4E20444C592E2E2E00202020254C
:100D80006C642073656320202000454E5445524911
:100D90004E47204D454E552E2E2E00004F4E200022
:100DA0004F464600030EEA6EA90EE96EEF500DE0C5
:100DB000060E016E006A002EFED7012EFBD77B0EB9
:100DC000006E002EFED7EF2EF3D7120094988B986A
:100DD00093908A90080E0301B16FB15319E0B0519E
:100DE000B11503E094968B8602D094968B96100EE4
:100DF000006E002EFED7000094988B88100E006EB7
:100E0000002EFED7000094988B98D890B133E5D788
:100E10001CA003D094968B8602D094968B96B16BCF
:100E2000B151010810E3100E006E002EFED7000035
:100E300094988B88100E006E002EFED700009498B8
:100E40008B98B12BEDD793908A80020E006E002E06
:100E5000FED700D0000093908A90000112001C90F1
:100E60000301A839A96F0F0EA917A9C3B0F3000198
:100E7000ADDF0301A8510F0BA96FB06F0001A6DF12
:100E80000301A8510C081BE0A82D01D018D0A851CF
:100E90000E0815E0A8510F0812E0A85110080FE045
:100EA000A8511E080CE0A851180809E0A85108082C
:100EB00006E0A851140803E0A851020805E1320E2B
:100EC000A96F00016FDF0301000112001C909496CE
:100ED0008B9694988B9893908A90949694989390EC
:100EE000280E0301A96F00015DDF030E0301A86F47
:100EF0000001B5DF050E0301A96F000153DF030EEA
:100F00000301A86F0001ABDF050E0301A96F00010B
:100F100049DF030E0301A86F0001A1DF050E0301E5
:100F2000A96F00013FDF020E0301A86F000197DFE8
:100F3000050E0301A96F000135DF280E0301A86F1C
:100F400000018DDF320E0301A96F00012BDF0C0EB3
:100F50000301A86F000183DF320E0301A96F0001B6
:100F600021DF060E0301A86F000179DF320E0301B5
:100F7000A96F000117DF0C0E0301A86F00016FDFDE
:100F8000320E0301A96F00010DDF12008E0E006EFC
:100F900018C301F017C302F0036A015209E102C04D
:100FA00001F0026A080E005E015202E1006A08D0F8
:100FB000D89001BE04D0023601360006F9D7019E52
:100FC000120003011B51D8B4A5D0276F1F51D8B40C
:100FD000A1D0275F05E37F0E2727D8B09BD006D08E
:100FE000810E275FD8A096D0D8B494D027C300F044
:100FF000016A026A036A266B1CC325F3258F1DC391
:1010000024F31EC323F3190E276F2251235F0DE231
:10101000010E245F0AE2255F08E2265F06E2262B26
:10102000252B242B2251232728D02151245F12E283
:10103000010E255F0FE2265F0DE2262B252B2151A5
:1010400024272251232719E3242B17E1252B15E10F
:10105000262B13D020518009255F0EE2010E265F5A
:101060000BE2262B20518009252721512427E9E373
:10107000252BE7E1262BE5D70380272F01D00BD0C6
:10108000D8902337243725372637D89003360236B1
:1010900001362837BAD728A106D0D89001320232BB
:1010A0000332283302D0000635E028BF1ED0D89086
:1010B00023372437253726372251235F07E2010ED5
:1010C000245F04E2255F02E2265F1AE32151245FD8
:1010D00005E2010E255F02E2265F12E3205180093E
:1010E000255F03E2010E265F0BE3032A09E1022AD2
:1010F00007E1012A05E1002A0DE001320232033244
:101100001CC327F32051271B27AF02D0018E06D026
:10111000019E04D0006A016A026A036A000112009B
:1011200018C31FF303011C511F1B1FAF05D0D89418
:10113000D89018BFD8802FD018C31FF31BC320F33B
:101140001751205F06E01FAF26D0D850010AD86E95
:1011500022D01CC320F31851205F06E01FAF1BD024
:10116000D850010AD86E17D01DC320F31951205F43
:1011700006E01FAF10D0D850010AD86E0CD01EC3A5
:1011800020F31A51205F06E01FAF05D0D850010AA6
:10119000D86E01D0D89000011200010E0301A65DA7
:1011A000FC0F2DE2040F000101EF09F0800E030196
:1011B000A525FF0FA76FA86F000151DE03011FD007
:1011C000C00E0301A525FF0FA76FA86F000147DE22
:1011D000030115D0940E0301A525FF0FA76FA86F7B
:1011E00000013DDE03010BD0D40E0301A525FF0F46
:1011F000A76FA86F000133DE030101D003010001D6
:101200001200F2CF0DF0F29EE824F76AF736270FAE
:10121000F66E120EF7220A00F550FA6E0800F5502D
:101220000DBEF28EF96EAC11C011D411E8111C8004
:101230000301AE39AF6F0F0EAF17AFC3B0F30001AC
:10124000C5DD100E006E002EFED700000301AE516A
:101250000F0BAF6FB06F0001B9DD12000900F5523E
:101260000CE0F6CF97F3F7CF98F3F5CFAEF3DFDFCF
:1012700097C3F6FF98C3F7FFF1D7120001018E5113
:10128000030836E18B530DE18C2D0BD08D510208F4
:1012900008E10A0E0301A96F000184DD1C9226D02B
:1012A00001018B530EE18C5102080BE18D2D09D009
:1012B0008F2B1C820A0E0301A96F000173DD16D06B
:1012C00001018B2D0ED08C530CE18D51020809E1E8
:1012D0008F2B1C820A0E0301A96F000163DD06D06B
:1012E00001010A0E0301A96F00015CDD06D00101B6
:1012F0000A0E0301A96F000155DD31EF43F0010132
:101300008A918A938A958E6B000112000301245101
:10131000D8B471D0006E2851D8B46DD0002604E343
:10132000810E002668E204D07F0E005E64E363E075
:1013300025C32CF329512C1B258F298F27512B03D3
:10134000F4CF2EF326512A03F4CF03F0F3CF2DF37D
:101350002B03F3502E27F4502D23000E0322275188
:101360002A03F3502E27F4502D23000E026A032285
:10137000022225512B03F3502D27F4500322000E97
:10138000022225512A03F3500326F4500222000EB4
:10139000016A012227512903F3502D27F45003221B
:1013A000000E0222012226512903F3500326F45095
:1013B0000222000E012225512903F3500226F45087
:1013C0000122002A01BE05D02D3703360236013630
:1013D0000006000E2DAF0AD0032A0222012201507E
:1013E00005E1025003E1035001E1002A2CBF018E08
:1013F0002CAF019E04D0006A016A026A036A0001F0
:1014000012008E0E006E03010B51005E0CC302F041
:101410000DC301F0028E005209E0D890025202E1A1
:10142000015204E002320132002EF7D70CAF05D092
:10143000011E021E012AD8B4022A0001E9EF0AF0B7
:101440000101645306E16351310803E3036A000EAE
:1014500003D064C103F06351B56F03C0B6F16653A6
:1014600006E16551310803E3036A000E03D066C14B
:1014700003F06551B76F03C0B8F1685306E16751D7
:10148000310803E3036A000E03D068C103F067511B
:10149000B96F03C0BAF174C1ACF173C1ABF172C1E1
:1014A000AAF171C1A9F170C1B0F16FC1AFF16EC104
:1014B000AEF16DC1ADF16CC1B4F16BC1B3F16AC1F4
:1014C000B2F169C1B1F1B6C1BCF1B5C1BBF1B8C1EE
:1014D000BEF1B7C1BDF1BAC1C0F1B9C1BFF10001E0
:1014E0009AEF0BF001017553D8B428D1756B020146
:1014F000FF6BFF510208D8A07FD0D890FF35036A58
:10150000570FE96E010E0320EA6EECCF09F3ED529E
:10151000EFCF08F309C318F308C317F3000136DD52
:1015200003C027F302C026F301C025F300C024F353
:10153000290E03012B6F5C0E2A6F1F0E296F810E7F
:10154000286F0001E3DE03C00BF302C00AF301C001
:1015500009F300C008F303C01EF302C01DF301C06D
:101560001CF300C01BF30301226BC00E216F7F0E22
:10157000206F880E1F6F000124DD03C003F302C03B
:1015800002F301C001F300C000F3D8900201FF355F
:10159000036A630FE96E010E0320EA6E03C327F3AB
:1015A00002C326F301C325F300C324F3330E030162
:1015B0002B6F2A6F430E296F870E286F0001A6DE5E
:1015C00003C00EF302C00DF301C00CF300C00BF317
:1015D00018D702C0ECFFED5201C0EFFFD890020116
:1015E000FF35036A570FE96E010E0320EA6EEC6ABD
:1015F000ED52EF6AFF2B7DD7030EFF6FFF510508F9
:10160000D8A096D0D890FF35036A570FE96E010E27
:101610000320EA6EECCF09F3ED52EFCF08F309C3D4
:1016200018F308C317F30001B1DC03C027F302C0AD
:1016300026F301C025F300C024F303012B6B2A6BB2
:10164000200E296F810E286F000160DE03C00BF3AE
:1016500002C00AF301C009F300C008F303C01EF37F
:1016600002C01DF301C01CF300C01BF30301226B79
:10167000C00E216F7F0E206F880E1F6F0001A1DC4E
:1016800003C007F302C006F301C005F300C004F372
:10169000030E0201FF5D040DF350036A690FE96E4A
:1016A000010E0320EA6E07C31EF306C31DF305C334
:1016B0001CF304C31BF3FC0E0301226FA90E216F60
:1016C000710E206F7A0E1F6F00017BDC03C00DF3DB
:1016D00002C00CF301C00BF300C00AF303C027F3F0
:1016E00002C026F301C025F300C024F30A0E030153
:1016F0002B6FD70E2A6F230E296F7E0E286F0001E5
:1017000005DE00C0EFFF01C0ECFF02C0ECFF03C02C
:10171000ECFFD8900201FF35036A570FE96E010E06
:101720000320EA6E030EEC6EED52EF68FF2B66D7D6
:10173000000186D6000E016E04D00101010E016E7B
:1017400000011200010153534EE0B6510201AD5D9C
:101750001BE307E1AC510101B55DD8A002D0020145
:1017600013D00101B8510201AF5D0EE308E1AE51A3
:101770000101B75DD8A002D0020106D00201010E1E
:101780000101986F2FD00201A7510101B65D08E356
:1017900015E1B5510201A65DD8B002D001010ED00D
:1017A0000201A9510101B85D0CE308E1B751020142
:1017B000A85DD8A002D0010104D00101020E986FEB
:1017C00011D0982D01D003D0985102080AE19C2D28
:1017D00008D0942D06D0955304E19C6B9E6B9D6BB5
:1017E000966B986B67D0B6510201AD5D08E322E1BC
:1017F000AC510101B55DD8B002D002011BD001018E
:10180000B8510201AF5D08E315E1AE510101B75DCA
:10181000D8B002D002010ED00101BA510201B15D6F
:101820000EE308E1B0510101B95DD8A002D0020178
:1018300006D00201010E0101986F3CD00201A751B0
:101840000101B65D08E322E1B5510201A65DD8B001
:1018500002D001011BD00201A9510101B85D08E3CA
:1018600015E1B7510201A85DD8B002D001010ED038
:101870000201AB510101BA5D0CE308E1B95102016B
:10188000AA5DD8A002D0010104D00101020E986F18
:1018900011D0982D01D003D0985102080AE19C2D57
:1018A00008D0942D06D0955304E19C6B9E6B9D6BE4
:1018B000966B986B000112000900F6CFA6F3F7CFE4
:1018C000A7F3F5CFAEF3B3DCA6C3F6FFA7C3F7FFCC
:1018D0000301A52F01D002D00001EED700011200B4
:1018E000EACFADF3E9CFACF30301A6AF08D0AC8FDC
:1018F000ACA9AC2BA51FA61FA52BD8B4A62BA63927
:10190000F009A86FA827E20FA96F320FAB6FA6519D
:101910000F0BA927A927AB27E90FAA6FAA27AA2788
:10192000A5390F0BAA27AB27AA37AB37AB1FAB37AD
:10193000A5510F0BAB27A837070EA76F0A0EAA07F2
:10194000AB27FDE3A907AA27FDE3A807A927FDE325
:10195000A707A827FDE3030EEA6EA70EE96E070EA0
:10196000AC15AC9DED52AC1507E1ACB9EE52ACB97B
:1019700003D0200E006E21D0E926000EEA22E950A5
:10198000AB0804E1EA50030801E1AC8DEF50006EB2
:1019900008E1ACBD06D0ACB91DD0ACB702D0200E6A
:1019A0000BD0ACAF06D02D0E006EED50AC9DAC9FB1
:1019B00004D0AC87AC99300E0026EACFA6F3E9CF6D
:1019C000A5F300C0AEF3000132DCA6C3EAFFA5C355
:1019D000E9FF0301EE50ACADD2D7000112000101C6
:1019E0005353D8B48DD093C118F392C117F30001AB
:1019F000C6EC07F0ACC11AF3ABC119F3AAC118F3D6
:101A0000A9C117F303C01EF302C01DF301C01CF3EC
:101A100000C01BF390EC08F029E393C118F392C1C6
:101A200017F3C6EC07F0B0C11AF3AFC119F3AEC19A
:101A300018F3ADC117F303C01EF302C01DF301C0BC
:101A40001CF300C01BF390EC08F010E301019A5363
:101A50000BE19B5309E1995307E1972D05D09B6B4F
:101A6000010E9A6FA06B9F6F4AD00001B3C218F3AA
:101A7000B2C217F3C6EC07F003C01AF302C019F3A1
:101A800001C018F300C017F3ACC11EF3ABC11DF3C6
:101A9000AAC11CF3A9C11BF390EC08F019E2B5C26E
:101AA00018F3B4C217F3C6EC07F003C01AF302C070
:101AB00019F301C018F300C017F3B0C11EF3AFC192
:101AC0001DF3AEC11CF3ADC11BF390EC08F005E3B0
:101AD000020E0101996F13D000010101995304E135
:101AE0009B6B9A6BA06B9F6B9951020808E10201F6
:101AF000A22D01D002D0010102D00101996BBED00C
:101B000093C118F392C117F30001C6EC07F0ACC102
:101B10001AF3ABC119F3AAC118F3A9C117F303C093
:101B20001EF302C01DF301C01CF300C01BF390ECB8
:101B300008F042E393C118F392C117F3C6EC07F023
:101B4000B0C11AF3AFC119F3AEC118F3ADC117F3A9
:101B500003C01EF302C01DF301C01CF300C01BF341
:101B600090EC08F029E393C118F392C117F3C6EC87
:101B700007F0B4C11AF3B3C119F3B2C118F3B1C17C
:101B800017F303C01EF302C01DF301C01CF300C015
:101B90001BF390EC08F010E301019A530BE19B5307
:101BA00009E1995307E1972D05D09B6B010E9A6FC0
:101BB000A06B9F6F63D00001B3C218F3B2C217F3DA
:101BC000C6EC07F003C01AF302C019F301C018F302
:101BD00000C017F3ACC11EF3ABC11DF3AAC11CF3C7
:101BE000A9C11BF390EC08F037E3B5C218F3B4C2F7
:101BF00017F3C6EC07F003C01AF302C019F301C0D3
:101C000018F300C017F3B0C11EF3AFC11DF3AEC18E
:101C10001CF3ADC11BF390EC08F01EE3B7C218F340
:101C2000B6C217F3C6EC07F003C01AF302C019F3EB
:101C300001C018F300C017F3B4C11EF3B3C11DF304
:101C4000B2C11CF3B1C11BF390EC08F005E3020E26
:101C50000101996F13D000010101995304E19B6BBD
:101C60009A6BA06B9F6B9951020808E10201A22DAB
:101C700001D002D0010102D00101996B000118EFDF
:101C800044F003012451B608246F036A25C328F3E6
:101C9000258FD89025332633273303320232013281
:101CA0000032242FF6D728AF0BD0001E011E021ED3
:101CB000031E002AD8B4012AD8B4022AD8B4032AB1
:101CC0000001D9EF0EF0D8B204D0030EEA6E2C0E4C
:101CD000E96E006A016A026A036A03012C6B2D6BCC
:101CE0002E6B2F6B2B512A11291128112CE0200E5D
:101CF000306FD89024372537263727372C372D37A4
:101D00002E372F372B512F5D08E12A512E5D05E12B
:101D100029512D5D02E128512C5D0FE328512C5FE4
:101D20002951D8A0293D2D5F2A51D8A02A3D2E5FE8
:101D30002B51D8A02B3D2F5FD880003601360236BC
:101D40000336302FD6D72CC3EFFF2DC3ECFF2EC3A5
:101D5000ECFF2FC3ECFF00011200E95003011C6FE0
:101D60001B511E6F1CE01AC327F319C326F318C3B7
:101D700025F317C324F32B6B2A6B200E296F820ED9
:101D8000286F000186EC09F003C01AF302C019F3B2
:101D900001C018F300C017F303011E2FE4D71AC3C4
:101DA00027F319C326F318C325F317C324F300013F
:101DB00068D703C01AF302C019F301C018F300C0BA
:101DC00017F303011AAF0DD01C071C8B171F181F28
:101DD000191F1A1F172BD8B4182BD8B4192BD8B425
:101DE0001A2B3B0E236F9A0E226FCA0E216F206BA7
:101DF0000A0E1E6F1B51D8B41C2BD882030EEA6E3C
:101E0000170EE96E1AC327F319C326F318C325F377
:101E100017C324F323C32BF322C32AF321C329F3CB
:101E200020C328F300014FDF0150005213E10301EA
:101E30001B291E5DD8A402D000010CD01C510DE05E
:101E40000F0B1E5D01E044E21CBF42D01CBD05D05B
:101E5000200E37D0200E03011C171CAB0FD01C9B8B
:101E60001B51D8A41C0700501C6F2D0EAE6F000133
:101E700017EC09F003011C51006E1C6B1B511E5D19
:101E80000DE100501C6F2E0EAE6F000117EC09F033
:101E900003011C51006E200E1C17000E300E1CABEF
:101EA00010D01C9B1B51D8A41C0700501C6F2D0E7A
:101EB000AE6F000117EC09F003011C51006E1C6BA2
:101EC000300E002600C0AEF3000117EC09F003014C
:101ED000D89223C327F322C326F321C325F320C3BB
:101EE00024F32B6B2A6B296B0A0E286F0001EBDEA3
:101EF00003C023F302C022F301C021F300C020F38A
:101F000003011E2F7AD700011200016A026A006ADB
:101F1000036A0301045102E1035118E0100E056F3A
:101F2000D89001370237003603360451035C02E1D2
:101F30000351005C07E30351005ED8A0030604517F
:101F4000035ED88001360236052FEAD70001120061
:101F500003018E51016A8D5D03E28DC300F00CD048
:101F6000006A080E8F6F8D3700368E51005CD8B036
:101F7000006E01368F2FF7D700011200200E0301EB
:101F800088A9300E896F87C300F087AF08D0001E84
:101F9000002A00C087F32D0E896F888F8881015039
:101FA00087C38DF3640E8E6F0001D2DF00C087F30C
:101FB000300E012403018A6F87C38DF30A0E8E6FE2
:101FC0000001C6DF300E002403018C6F300E0124A7
:101FD0008B6F89C300F0300E8A5D04E0888388BF70
:101FE000888512D089C38AF3200E896F300E8B5DED
:101FF00004E0888188BF888307D0D8A4888104E161
:102000008AC38BF3200E8A6F88B505D088B308D0B9
:1020100088B10BD00FD089C3AEF3000117EC09F0E3
:102020008AC3AEF3000117EC09F08BC3AEF30001D5
:1020300017EC09F08CC3AEF3000117EC09F01200A5
:102040008A888A9A040E0201FF6FFA0E0301A96FB3
:102050000001D2EC06F00201FF2FF7D7040EFF6F4C
:10206000FA0E0301A96F0001D2EC06F00201FF2F66
:10207000F7D7040EFF6FFA0E0301A96F0001D2EC2F
:1020800006F00201FF2FF7D7040EFF6FFA0E0301CF
:10209000A96F0001D2EC06F00201FF2FF7D7010172
:1020A000C66BC56B610EC76F992D01D001D08A8AAE
:1020B00000011200EF5210E0EACFA6F3E9CFA5F33A
:1020C000EFCFAEF317EC09F0A6C3EAFFA5C3E9FF13
:1020D000E92AD8B4EA2AEED712000201E4514B5C97
:1020E0003AE0010E0301A86F00012FEC07F0010E8A
:1020F0000301A56FA66F0001CDEC08F0D8904B341A
:10210000036A4E0FE96E000E0320EA6EECCF01F376
:10211000ED52EFCF00F301C3EAFF00C3E9FFCADFCE
:10212000010E0301A56F020EA66F0001CDEC08F0B1
:102130004B500F0807E1D40EF66E040EF76E2EEC2E
:1021400009F006D0E20EF66E040EF76E2EEC09F0E2
:102150004BC0E4F202010001B2EF10F04C52D8B4CF
:102160006FD0BBD782BA12D0928880A80FD0050E4C
:102170000301A96F0001D2EC06F04B2A4B500F0867
:1021800002E2010E4B6E82AAFED714D0928880B86C
:1021900011D082AA0FD0050E0301A96F0001D2EC65
:1021A00006F04B2C03D00F0E4B6E01D04B069288DD
:1021B00080A8FDD781BC3DD0140E0301A96F00019A
:1021C000D2EC06F081BC35D081BC07D00A0E0301E9
:1021D000A96F0001D2EC06F0F7D74B500F0827E1AA
:1021E0003F6A4C6A010E0301A86F00012FEC07F053
:1021F000010E0301A56FA66F0001CDEC08F0F20EF1
:10220000F66E040EF76E2EEC09F0040E0301006F5B
:10221000FA0EA96F0001D2EC06F00301002FF8D7E7
:10222000010EA86F00012FEC07F00AD002D04C6A13
:1022300007D0010E0301A96F0001D2EC06F08ED782
:10224000E1EF39F04B2A4B500F0802E2010E4B6EC2
:10225000010E4C6E120081ACFED7010E0301A86F77
:1022600000012FEC07F0010E0301A56FA66F00011E
:10227000CDEC08F0020EF66E050EF76E2EEC09F0AE
:10228000F2CF02F3F29EAA6AA96AA69CA69EA68035
:10229000A850030102BFF28E0201FF6FFFC200F3DC
:1022A00003010169010EA56F020EA66F0001CDECBE
:1022B00008F00201FF5309E1120EF66E050EF76EEB
:1022C00000012EEC09F008D00201260EF66E050E74
:1022D000F76E00012EEC09F082BA12D0928880A825
:1022E0000FD0050E0301A96F0001D2EC06F0010E1C
:1022F0000201FF25010BFF6F82AAFED716D0000155
:10230000928880B813D082AA11D0050E0301A96F5C
:102310000001D2EC06F00201FF5302E1010E01D0F0
:10232000000EFF6F928880A8FDD7000103010151C4
:102330000201FF5D1EE0010E0301A56F020EA66FF4
:102340000001CDEC08F00201FF5309E13A0EF66EF0
:10235000050EF76E00012EEC09F008D002014E0EBA
:10236000F66E050EF76E00012EEC09F0FFC201F3C8
:10237000020181BCAFD0140E0301A96F0001D2ECA1
:1023800006F081BCA6D0030100510201FF5D6CE0A4
:10239000F250006EF29EAA6AA96AFFC2A8FFA69C2C
:1023A000A69EA6840F01550EA76EAA0EA76EA68242
:1023B000A6B2FED7A6940050F212010E0301A86F38
:1023C00000012FEC07F0010E0301A56FA66F0001BD
:1023D000CDEC08F0620EF66E050EF76E2EEC09F0ED
:1023E000010E0301A56F020EA66F0001CDEC08F0EF
:1023F0000201FF530BE16E0EF66E050EF76E000143
:102400002EEC09F0FFC253F10AD00201760EF66EEF
:10241000050EF76E00012EEC09F0FFC253F181ACFE
:10242000FED7010E0301A56F020EA66F0001CDECD1
:1024300008F07E0EF66E050EF76E2EEC09F081BCEC
:10244000FED7140E0301A96F0001D2EC06F081AC97
:10245000FED7320E0301A96F0001D2EC06F0FFC2D5
:1024600040F0F0DE35D0020181ACFED7010E030151
:10247000A86F00012FEC07F0010E0301A56FA66FF6
:102480000001CDEC08F0900EF66E050EF76E2EEC06
:1024900009F0010E0301A56F020EA66F0001CDEC3D
:1024A00008F09A0EF66E050EF76E2EEC09F081BC60
:1024B000FED7140E0301A96F0001D2EC06F081AC27
:1024C000FED7320E0301A96F0001D2EC06F0BADE8E
:1024D00008D00201010E0301A96F0001D2EC06F041
:1024E000FBD6E9EF39F081ACFED7F2CF01F3F29ED3
:1024F000AA6A030EA96EA69CA69EA680A8500301F8
:1025000001BFF28E0201FF6FFF5305E0FF2D01D0E6
:1025100002D0010EFF6F03010069010EA86F0001D8
:102520002FEC07F0010E0301A56FA66F0001CDECA3
:1025300008F0C60EF66E050EF76E2EEC09F0010ED1
:102540000301A56F020EA66F0001CDEC08F0020199
:10255000FF2D09D0D60EF66E050EF76E00012EEC9B
:1025600009F008D00201E80EF66E050EF76E0001C4
:102570002EEC09F082BA14D0928880A811D0050EF2
:102580000301A96F0001D2EC06F00201FF2D02D079
:10259000000E01D0010EFF6F82AAFED716D00001F7
:1025A000928880B813D082AA11D0050E0301A96FBA
:1025B0000001D2EC06F00201FF2D02D0000E01D086
:1025C000010EFF6F928880A8FDD700010301005122
:1025D0000201FF5D1EE0010E0301A56F020EA66F52
:1025E0000001CDEC08F00201FF2D09D0FA0EF66EC5
:1025F000050EF76E00012EEC09F008D002010C0E5A
:10260000F66E060EF76E00012EEC09F0FFC200F325
:10261000020181BC75D0140E0301A96F0001D2EC38
:1026200006F081BC6CD0F250006EF29EAA6A030ED6
:10263000A96EFFC2A8FFA69CA69EA6840F01550EF8
:10264000A76EAA0EA76EA682A6B2FED7A6940050C9
:10265000F212010E0301A86F00012FEC07F0010E2A
:102660000301A56FA66F0001CDEC08F01E0EF66EFB
:10267000060EF76E2EEC09F0010E0301A56F020E97
:10268000A66F0001CDEC08F00201FF2D09D0300E3D
:10269000F66E060EF76E00012EEC09F008D002016E
:1026A000420EF66E060EF76E00012EEC09F081ACBC
:1026B000FED7010E0301A56F020EA66F0001CDEC3F
:1026C00008F0540EF66E060EF76E2EEC09F081BC83
:1026D000FED7140E0301A96F0001D2EC06F081AC05
:1026E000FED7320E0301A96F0001D2EC06F0010EF5
:1026F0000301A86F00012FEC07F0A4DD08D0020150
:10270000010E0301A96F0001D2EC06F033D7EFEF01
:1027100039F081ACFED7F2CF0AF3F29EAA6A110E0D
:10272000A96EA69CA69EA680A85003010ABFF28EA1
:102730000B6FF2CF0CF3F29EAA6A100EA96EA69C44
:10274000A69EA680A8500CBFF28E0D6F0BC300F39F
:102750000DC3FFF20051020810E2FF0A08E1020176
:10276000FF51E708D8A002D0030107D00301030EF0
:10277000006FE70E0201FF6F030100C302F3FFC207
:1027800001F3010E036F0569046906690791A86FDB
:1027900000012FEC07F0640E0301A96F0001D2ECD9
:1027A00006F003010051020810E2FF0A08E10201ED
:1027B000FF51E708D8A002D0030107D00301030EA0
:1027C000006FE70E0201FF6F030104510201FF5D7C
:1027D0000BE103010551005DD8B402D0020104D021
:1027E0000651035D5EE00201010E0301A86F0001C6
:1027F0002FEC07F0010E0301A56FA66F0001CDECD1
:1028000008F00301032D09D0660EF66E060EF76E72
:1028100000012EEC09F014D0030103510A0809E16C
:10282000760EF66E060EF76E00012EEC09F008D05B
:102830000301860EF66E060EF76E00012EEC09F00F
:10284000010E0301A56F020EA66F0001CDEC08F08A
:10285000960EF66E060EF76E030E0301A56F0001CD
:102860005CEC0CF0100EE96E00C3A6F3FFC2A5F3FA
:1028700070EC0CF09C0EF66E060EF76E070E030160
:10288000A56F00015CEC0CF000C305F3FFC204F37C
:1028900003C306F3320E0301A96F0001D2EC06F068
:1028A000030181B622D0320EA96F0001D2EC06F0EE
:1028B0000301032D03D00A0E036F08D003510A0849
:1028C00003E1640E036F02D0010E036F0669320E3E
:1028D000086F81B60AD0085308E00A0EA96F0001FC
:1028E000D2EC06F003010807F4D781B417D0320EFA
:1028F000A96F0001D2EC06F0010E0301036F066917
:10290000320E096F81B40AD0095308E00A0EA96F8C
:102910000001D2EC06F003010907F4D782BA34D0E3
:10292000928880A831D04D522FE1050EA96F000189
:10293000D2EC06F0E70ED88003010355006E030EBB
:10294000D8A0E806036E00C001F00051035C11E35B
:1029500008E10201FF51015CD8B002D0030109D0A7
:10296000030103510201FF27000E030100234D6AFA
:1029700002D0010E4D6E280EA96F0001D2EC06F0B8
:1029800082AAFED729D00301928880B826D082AAD5
:1029900024D04D5222E1050EA96F0001D2EC06F0C1
:1029A0000301005305E103510201FF5D0AE3030146
:1029B00003510201FF5F000E0301005B4D6A04D06A
:1029C0000201010E4D6E0301280EA96F0001D2EC29
:1029D00006F0928880A8FDD7030182AA04D09288CD
:1029E00080A801D04D6A81BC09D107B107D1140E6E
:1029F000A96F0001D2EC06F081BCFED00301078173
:102A000001510201FF5D06E103010251005DD8B4EE
:102A1000AAD0020103010051020810E2FF0A08E1F6
:102A20000201FF51E708D8A002D0030107D003013B
:102A3000030E006FE70E0201FF6F0301FFC20AF3EE
:102A4000F250006EF29EAA6A100EA96E0AC3A8FF89
:102A5000A69CA69EA6840F01550EA76EAA0EA76E71
:102A6000A682A6B2FED7A6940050F21200C30AF3C3
:102A7000F2CF00F0F29EAA6A110EA96E00C3A8FF61
:102A8000A69CA69EA684550EA76EAA0EA76EA68229
:102A9000A6B2FED7A6940050F212010E0301A86F51
:102AA00000012FEC07F0010E0301A56FA66F0001D6
:102AB000CDEC08F0A40EF66E060EF76E2EEC09F0C3
:102AC000010E0301A56F020EA66F0001CDEC08F008
:102AD000B20EF66E060EF76E030E0301A56F00012F
:102AE0005CEC0CF0100EE96E00C3A6F3FFC2A5F378
:102AF00070EC0CF0B80EF66E060EF76E070E0301C2
:102B0000A56F00015CEC0CF000C33DF0FFC23CF08F
:102B100081BC07D00A0E0301A96F0001D2EC06F0B8
:102B2000F7D7010E0301A56F020EA66F0001CDECD1
:102B300008F0C00EF66E060EF76E2EEC09F081BCA2
:102B4000FED7140E0301A96F0001D2EC06F081AC90
:102B5000FED7320E0301A96F0001D2EC06F022EC81
:102B600011F03CD0030181BC07D00A0EA96F00010F
:102B7000D2EC06F00301F7D7010EA86F00012FEC8D
:102B800007F0010E0301A56FA66F0001CDEC08F060
:102B9000D20EF66E060EF76E2EEC09F0010E030152
:102BA000A56F020EA66F0001CDEC08F0DC0EF66EEC
:102BB000060EF76E2EEC09F081BCFED7140E030151
:102BC000A96F0001D2EC06F081ACFED7320E0301F2
:102BD000A96F0001D2EC06F022EC11F0010E030106
:102BE000A86F00012FEC07F0640E0301A96F00012C
:102BF000D2EC06F010D003D003010791000181ACA4
:102C000003D0030107910001010E0301A96F000128
:102C1000D2EC06F0C6D5F5EF39F0320E0301A96FFC
:102C20000001D2EC06F081ACFED7F2CF0AF3F29E9F
:102C3000AA6A490EA96EA69CA69EA680A85003016A
:102C40000ABFF28E0B6FF2CF0CF3F29EAA6A480E07
:102C5000A96EA69CA69EA680A8500CBFF28E0D6FF2
:102C60000BC300F30DC3FFF2005305E10201FF5156
:102C70003C0805E20301006B3C0E0201FF6F00C33C
:102C800002F3FFC201F3010E0301036F056904693A
:102C900006690791A86F00012FEC07F0640E03018D
:102CA000A96F0001D2EC06F00301005305E1020117
:102CB000FF513C0805E20301006B3C0E0201FF6F6F
:102CC000030104510201FF5D0BE103010551005DA9
:102CD000D8B402D0020104D00651035D5EE00201C7
:102CE000010E0301A86F00012FEC07F0010E030194
:102CF000A56FA66F0001CDEC08F00301032D09D0EC
:102D0000C20EF66E090EF76E00012EEC09F014D01B
:102D1000030103510A0809E1D40EF66E090EF76E9D
:102D200000012EEC09F008D00301E60EF66E090E44
:102D3000F76E00012EEC09F0010E0301A56F020EE3
:102D4000A66F0001CDEC08F0F80EF66E090EF76ED6
:102D5000030E0301A56F00015CEC0CF0100EE96E90
:102D600000C3A6F3FFC2A5F370EC0CF0FE0EF66EE6
:102D7000090EF76E070E0301A56F00015CEC0CF065
:102D800000C305F3FFC204F303C306F3320E0301CD
:102D9000A96F0001D2EC06F0030181B622D0320EF9
:102DA000A96F0001D2EC06F00301032D03D00A0E37
:102DB000036F08D003510A0803E1640E036F02D0C9
:102DC000010E036F0669320E086F81B60AD00853F0
:102DD00008E00A0EA96F0001D2EC06F00301080713
:102DE000F4D781B417D0320EA96F0001D2EC06F0EF
:102DF000010E0301036F0669320E096F81B40AD018
:102E0000095308E00A0EA96F0001D2EC06F0030195
:102E10000907F4D782BA2BD0928880A828D04D52C7
:102E200026E1050EA96F0001D2EC06F03C0ED88019
:102E300003010355005310E10201FF5D04E0D8A037
:102E400002D0030109D0030103510201FF27000E44
:102E5000030100234D6A02D0010E4D6E280EA96FAA
:102E60000001D2EC06F082AAFED729D00301928895
:102E700080B826D082AA24D04D5222E1050EA96F37
:102E80000001D2EC06F00301005305E103510201F9
:102E9000FF5D0AE3030103510201FF5F000E03011E
:102EA000005B4D6A04D00201010E4D6E0301280E35
:102EB000A96F0001D2EC06F0928880A8FDD703012B
:102EC00082AA04D0928880A801D04D6A81BCFDD02E
:102ED00007B1FBD0140EA96F0001D2EC06F081BC43
:102EE000F2D00301078101510201FF5D06E10301F8
:102EF0000251005DD8B49ED002010301005305E1E8
:102F00000201FF513C0805E20301006B3C0E020187
:102F1000FF6FFFC20AF3F250006EF29EAA6A480EDB
:102F2000A96E0AC3A8FFA69CA69EA6840F01550EF3
:102F3000A76EAA0EA76EA682A6B2FED7A6940050D0
:102F4000F21200C30AF3F2CF00F0F29EAA6A490E11
:102F5000A96E00C3A8FFA69CA69EA684550EA76EC8
:102F6000AA0EA76EA682A6B2FED7A6940050F212B1
:102F7000010E0301A86F00012FEC07F0010E030101
:102F8000A56FA66F0001CDEC08F0060EF66E0A0ED6
:102F9000F76E2EEC09F0010E0301A56F020EA66F6D
:102FA0000001CDEC08F0160EF66E0A0EF76E030E59
:102FB0000301A56F00015CEC0CF0100EE96E00C37C
:102FC000A6F3FFC2A5F370EC0CF01C0EF66E0A0E11
:102FD000F76E070E0301A56F00015CEC0CF081BCDD
:102FE00007D00A0E0301A96F0001D2EC06F0F7D753
:102FF000010E0301A56F020EA66F0001CDEC08F0D3
:10300000240EF66E0A0EF76E2EEC09F081BCFED788
:10301000140E0301A96F0001D2EC06F081ACFED7BB
:10302000320E0301A96F0001D2EC06F022EC11F080
:103030003CD0030181BC07D00A0EA96F0001D2EC7D
:1030400006F00301F7D7010EA86F00012FEC07F07F
:10305000010E0301A56FA66F0001CDEC08F0360E3E
:10306000F66E0A0EF76E2EEC09F0010E0301A56F45
:10307000020EA66F0001CDEC08F0400EF66E0A0EAF
:10308000F76E2EEC09F081BCFED7140E0301A96F78
:103090000001D2EC06F081ACFED7320E0301A96F1D
:1030A0000001D2EC06F022EC11F0010E0301A86F32
:1030B00000012FEC07F0640E0301A96F0001D2ECB0
:1030C00006F010D003D003010791000181AC03D0BA
:1030D000030107910001010E0301A96F0001D2EC69
:1030E00006F0E2D5FBEF39F0320E0301A96F0001C3
:1030F000D2EC06F081ACFED7F2CF08F3F29EAA6ABA
:10310000150EA96EA69CA69EA680A850030108BF16
:10311000F28E096FF2CF0AF3F29EAA6A140EA96E1C
:10312000A69CA69EA680A8500ABFF28E0B6F09C36C
:1031300020F00BC31FF0205203E11F503C0803E2B4
:10314000206A3C0E1F6E20C000F31FC0FFF2020178
:10315000BA6B1FC0B9F2010E0301016F0369026966
:1031600004690591A86F00012FEC07F0640E0301BC
:10317000A96F0001D2EC06F0205203E11F503C0879
:1031800003E2206A3C0E1F6E030102511F5C06E140
:103190000351205C03E10451015D50E0010EA86F72
:1031A00000012FEC07F0010E0301A56FA66F0001CF
:1031B000CDEC08F00301012D09D0E80EF66E060EE5
:1031C000F76E00012EEC09F008D00301F80EF66E40
:1031D000060EF76E00012EEC09F0010E0301A56F3B
:1031E000020EA66F0001CDEC08F0080EF66E070E79
:1031F000F76E030E0301A56F00015CEC0CF0100EDE
:10320000E96E20C0A6F31FC0A5F370EC0CF00E0E03
:10321000F66E070EF76E070E0301A56F00015CEC5A
:103220000CF020C003F31FC002F301C304F3320EFD
:103230000301A96F0001D2EC06F0030181B61BD097
:10324000320EA96F0001D2EC06F00301012D02D06D
:103250000A0E01D0010E016F0469320E066F81B6AD
:103260000AD0065308E00A0EA96F0001D2EC06F05E
:1032700003010607F4D781B417D0320EA96F0001FD
:10328000D2EC06F0010E0301016F0469320E076FE4
:1032900081B40AD0075308E00A0EA96F0001D2ECEE
:1032A00006F003010707F4D782BA24D0928880A8D9
:1032B00021D04D521FE1050EA96F0001D2EC06F09E
:1032C0003C0ED88003010155205209E11F5C01E04A
:1032D00006E201511F26000E20224D6A02D0010E87
:1032E0004D6E280EA96F0001D2EC06F082AAFED71F
:1032F00025D00301928880B822D082AA20D04D52D6
:103300001EE1050EA96F0001D2EC06F0205205E186
:10331000030101511F5C08E30001030101511F5E1D
:10332000000E205A4D6A02D0010E4D6E280EA96F74
:103330000001D2EC06F0928880A8FDD7030182AA92
:1033400004D0928880A801D04D6A81BCF9D005B123
:10335000F7D0140EA96F0001D2EC06F081BCEED0BC
:10336000030105810201FF511F5C06E103010051C9
:10337000205CD8B49AD00201205203E11F503C08CF
:1033800003E2206A3C0E1F6E1FC008F3F250006E6D
:10339000F29EAA6A140EA96E08C3A8FFA69CA69E58
:1033A000A6840F01550EA76EAA0EA76EA682A6B21E
:1033B000FED7A6940050F21220C008F3F2CF00F01E
:1033C000F29EAA6A150EA96E20C0A8FFA69CA69E12
:1033D000A684550EA76EAA0EA76EA682A6B2FED729
:1033E000A6940050F212010E0301A86F00012FEC09
:1033F00007F0010E0301A56FA66F0001CDEC08F0E8
:10340000160EF66E070EF76E2EEC09F0010E030194
:10341000A56F020EA66F0001CDEC08F0260EF66E29
:10342000070EF76E030E0301A56F00015CEC0CF0B4
:10343000100EE96E20C0A6F31FC0A5F370EC0CF0CF
:103440002C0EF66E070EF76E070E0301A56F000136
:103450005CEC0CF081BC07D00A0E0301A96F0001DF
:10346000D2EC06F0F7D7010E0301A56F020EA66F8E
:103470000001CDEC08F0340EF66E070EF76E2EEC60
:1034800009F081BCFED7140E0301A96F0001D2EC34
:1034900006F081ACFED7320E0301A96F0001D2EC19
:1034A00006F022EC11F03CD0030181BC07D00A0EDB
:1034B000A96F0001D2EC06F00301F7D7010EA86F47
:1034C00000012FEC07F0010E0301A56FA66F0001AC
:1034D000CDEC08F0460EF66E070EF76E2EEC09F0F6
:1034E000010E0301A56F020EA66F0001CDEC08F0DE
:1034F000500EF66E070EF76E2EEC09F081BCFED76B
:10350000140E0301A96F0001D2EC06F081ACFED7C6
:10351000320E0301A96F0001D2EC06F022EC11F08B
:10352000010E0301A86F00012FEC07F0640E0301E8
:10353000A96F0001D2EC06F010D003D00301059171
:10354000000181AC03D0030105910001010E0301CC
:10355000A96F0001D2EC06F00FD601EF3AF003019B
:10356000A0699F69010EA16FA2699E519A5D08E34F
:1035700003E199519D5D04E29EC39AF39DC399F3C3
:103580009A519C5D08E303E19B51995D04E29CC361
:103590009AF39BC399F381B622D0320EA96F000132
:1035A000D2EC06F00301A12D03D00A0EA16F08D0C2
:1035B000A1510A0803E1640EA16F02D0010EA16FB0
:1035C000A269320EA36F81B60AD0A35308E00A0E97
:1035D000A96F0001D2EC06F00301A307F4D781B470
:1035E00017D0320EA96F0001D2EC06F0010E0301D4
:1035F000A16FA269320EA46F81B40AD0A45308E06F
:103600000A0EA96F0001D2EC06F00301A407F4D75B
:1036100082BA31D0928880A82ED0050EA96F000101
:10362000D2EC06F00301A1519D5D006E000E9E5983
:10363000036E00C001F09A51035C09E303E1995164
:10364000015C05E3A1519927000E9A230BD09A51F2
:103650009E5D08E303E19D51995D04E29EC39AF3E8
:103660009DC399F3280EA96F0001D2EC06F082AA3F
:10367000FED731D00301928880B82ED082AA2CD0F8
:10368000050EA96F0001D2EC06F00301A1519B25A4
:10369000016E000E9C21036E03509A5D09E303E165
:1036A0000150995D05E3A151995F000E9A5B0BD023
:1036B0009C519A5D08E303E199519B5D04E29CC330
:1036C0009AF39BC399F3280EA96F0001D2EC06F080
:1036D000928880A8FDD703019F51995D06E1A05112
:1036E0009A5D03E1A251A15D70E0010EA86F000197
:1036F0002FEC07F0320E0301A96F0001D2EC06F0A7
:10370000010E0301A56FA66F0001CDEC08F00301C7
:10371000A12D13D098C3EAFF97C3E9FF00015AEC2B
:1037200010F0A80EF66E050EF76E040E0301A56FDD
:1037300000015CEC0CF028D00301A1510A0813E150
:1037400098C3EAFF97C3E9FF00015AEC10F0B00EEE
:10375000F66E050EF76E040E0301A56F00015CEC1A
:103760000CF012D0030198C3EAFF97C3E9FF0001F0
:103770005AEC10F0B80EF66E050EF76E040E03014B
:10378000A56F00015CEC0CF0010E0301A56F020EA9
:10379000A66F0001CDEC08F0BE0EF66E050EF76EBA
:1037A000030E0301A56F00015CEC0CF0100EE96E36
:1037B0009AC3A6F399C3A5F370EC0CF09AC3A0F3D7
:1037C00099C39FF3A1C3A2F3030181BC09D0320EB8
:1037D000A96F0001D2EC06F081ACFED709D003013D
:1037E000050EA96F0001D2EC06F00301BED6000160
:1037F000030199C301F09AC302F000011200EACF5D
:103800009FF3E9CF9EF303019839F0099A6F9A2745
:10381000E20F9B6F320F9D6F98510F0B9B279B27D9
:103820009D27E90F9C6F9C279C2797390F0B9C279E
:103830009D279C379D379D1F9D3797510F0B9D27C7
:103840009A37070E996F0A0E9C079D27FDE39B0789
:103850009C27FDE39A079B27FDE399079A27FDE341
:10386000030EEA6E990EE96E070E9E159E9DE926DF
:10387000000EEA22E9509D0804E1EA50030801E144
:103880009E8DEF50006E08E19EBD06D09EB916D009
:103890009EB702D0200E03D09E879E99300E002640
:1038A000EACF98F3E9CF97F300C0AEF3000117EC2D
:1038B00009F098C3EAFF97C3E9FF0301EE509EADFC
:1038C000D9D70001120081ACFED7320E0301A96FD7
:1038D0000001D2EC06F03E0E0301076F200E086FC8
:1038E0004C0E096F4F0E0A6F570E0B6F200E0C6FA8
:1038F000560E0D6F4F0E0E6F4C0E0F6F540E106F55
:10390000200E116F126F136F146F156F166F176BF8
:103910003E0E186F200E196F480E1A6F490E1B6F5E
:10392000470E1C6F480E1D6F200E1E6F560E1F6F28
:103930004F0E206F4C0E216F540E226F200E236FFE
:10394000246F256F266F276F286B3E0E296F200E80
:103950002A6F4F0E2B6F560E2C6F450E2D6F520E89
:103960002E6F4C0E2F6F4F0E306F410E316F440E85
:10397000326F200E336F346F356F366F376F386F9D
:10398000396B3E0E3A6F200E3B6F450E3C6F580E62
:103990003D6F490E3E6F540E3F6F2D0E406F3E0E31
:1039A000416F4E0E426F450E436F580E446F540EDA
:1039B000456F200E466F476F486F496F4A6B030E85
:1039C000006F070E0201FF6F030E0301026F180E56
:1039D000016F030E046F290E036F030E066F3A0E7C
:1039E000056F040E4B6F4C6B4D694D514C5D32E0D1
:1039F000010EA86F00012FEC07F0010E0301A56F67
:103A0000A66F0001CDEC08F05C0EF66E070EF76EA7
:103A10002EEC09F0010E0301A56F020EA66F000146
:103A2000CDEC08F0D89003014C35036AFF0FE96E26
:103A3000020E0320EA6EECCF97F3ED52EFCF96F330
:103A400097C3EAFF96C3E9FF00015AEC10F04CC39C
:103A50004DF3030182BA17D0928880A814D0050EC6
:103A6000A96F0001D2EC06F003014C2B4B514C5DC9
:103A700001E34C6B82AAFED7140EA96F0001D2ECB1
:103A800006F01BD00301928880B818D082AA16D005
:103A9000050EA96F0001D2EC06F003014C5304E1BE
:103AA000010E4B5D4C6F01D04C07928880A8FDD76A
:103AB000140EA96F0001D2EC06F0030181BCA4EF43
:103AC00023F0140EA96F0001D2EC06F081BCA3EF25
:103AD00023F081ACFED7320E0301A96F0001D2ECB6
:103AE00006F003014C53D8A4FAD14C0E4E6F560E7B
:103AF0004F6F200E506F520E516F3A0E526F536B34
:103B00004C0E546F560E556F200E566F590E576F50
:103B10003A0E586F596B4C0E5A6F560E5B6F200E53
:103B20005C6F420E5D6F3A0E5E6F5F6BF2CF96F385
:103B3000F29EAA6A050EA96EA69CA69EA680A85013
:103B400096BFF28E976FF2CF98F3F29EAA6A040E98
:103B5000A96EA69CA69EA680A85098BFF28E996FCB
:103B600097C361F399C360F3F2CF9AF3F29EAA6A06
:103B7000090EA96EA69CA69EA680A8509ABFF28E9A
:103B80009B6FF2CF9CF3F29EAA6A080EA96EA69CC8
:103B9000A69EA680A8509CBFF28E9D6F9BC363F328
:103BA0009DC362F3F2CF9EF3F29EAA6A470EA96EFE
:103BB000A69CA69EA680A8509EBFF28E9F6FF2CFB5
:103BC000A0F3F29EAA6A460EA96EA69CA69EA680A7
:103BD000A850A0BFF28EA16F9FC365F3A1C364F389
:103BE0006151000805E2FF0A08E16051900805E311
:103BF000615306E16051630803E3616BC80E606FB7
:103C00006351000805E2FF0A08E16251900805E3EC
:103C1000635306E16251630803E3636BC80E626F8E
:103C20006551000805E2FF0A08E16451900805E3C8
:103C3000655306E16451630803E3656BC80E646F66
:103C4000010EA86F00012FEC07F0010E0301A56F14
:103C5000A66F0001CDEC08F06E0EF66E070EF76E43
:103C60002EEC09F0040E0301966FC80EA96F000137
:103C7000D2EC06F00301962FF8D7030E986F4E0E84
:103C8000976F61C39AF360C399F39C6B640E9B6F4B
:103C9000010E9E6F900E9D6F000161DC02C061F30A
:103CA00001C060F3030E0301986F540E976F63C356
:103CB0009AF362C399F39C6B640E9B6F010E9E6F27
:103CC000900E9D6F00014BDC02C063F301C062F3F4
:103CD000030E0301986F5A0E976F65C39AF364C37E
:103CE00099F39C6B640E9B6F010E9E6F900E9D6FFF
:103CF000000135DC02C065F301C064F360C396F3D4
:103D0000F250006EF29EAA6A040EA96E96C3A8FF36
:103D1000A69CA69EA6840F01550EA76EAA0EA76E9E
:103D2000A682A6B2FED7A6940050F21261C396F303
:103D3000F2CF00F0F29EAA6A050EA96E61C3A8FF39
:103D4000A69CA69EA684550EA76EAA0EA76EA68256
:103D5000A6B2FED7A6940050F21262C396F3F2CF39
:103D600000F0F29EAA6A080EA96E62C3A8FFA69C84
:103D7000A69EA684550EA76EAA0EA76EA682A6B210
:103D8000FED7A6940050F21263C396F3F2CF00F070
:103D9000F29EAA6A090EA96E63C3A8FFA69CA69EFE
:103DA000A684550EA76EAA0EA76EA682A6B2FED74F
:103DB000A6940050F21264C396F3F2CF00F0F29E84
:103DC000AA6A460EA96E64C3A8FFA69CA69EA684F6
:103DD000550EA76EAA0EA76EA682A6B2FED7A6940F
:103DE0000050F21265C396F3F2CF00F0F29EAA6A79
:103DF000470EA96E65C3A8FFA69CA69EA684550E75
:103E0000A76EAA0EA76EA682A6B2FED7A6940050F1
:103E1000F21261C3ADF260C3ACF263C3AFF262C32E
:103E2000AEF265C3B1F264C3B0F2010E0301A86F34
:103E300000012FEC07F0010E0301A56FA66F000132
:103E4000CDEC08F0800EF66E070EF76E2EEC09F042
:103E5000010E0301A56F020EA66F0001CDEC08F064
:103E6000100EE96E61C398F360C397F3C8DC3A0E95
:103E70000301AE6F000117EC09F0100EE96E63C389
:103E800098F362C397F3BBDC3A0E0301AE6F0001F7
:103E900017EC09F0100EE96E65C398F364C397F34D
:103EA000AEDC9D0EF66E070EF76E060E0301A56FD3
:103EB00000015CEC0CF081BCFED7140E0301A96F6D
:103EC0000001D2EC06F081ACFED7320E0301A96FDF
:103ED0000001D2EC06F003014D69A4EF23F04C2D54
:103EE00002D2480E666F560E676F200E686F520E34
:103EF000696F3A0E6A6F6B6B480E6C6F560E6D6F82
:103F0000200E6E6F590E6F6F3A0E706F716B480E08
:103F1000726F560E736F200E746F420E756F3A0EED
:103F2000766F776BF2CF96F3F29EAA6A0B0EA96EAC
:103F3000A69CA69EA680A85096BFF28E976FF2CF41
:103F400098F3F29EAA6A0A0EA96EA69CA69EA68067
:103F5000A85098BFF28E996F97C379F399C378F3FD
:103F6000F2CF9AF3F29EAA6A0D0EA96EA69CA69EA7
:103F7000A680A8509ABFF28E9B6FF2CF9CF3F29E60
:103F8000AA6A0C0EA96EA69CA69EA680A8509CBFED
:103F9000F28E9D6F9BC37BF39DC37AF3F2CF9EF3AA
:103FA000F29EAA6A0F0EA96EA69CA69EA680A85095
:103FB0009EBFF28E9F6FF2CFA0F3F29EAA6A0E0E02
:103FC000A96EA69CA69EA680A850A0BFF28EA16F47
:103FD0009FC37DF3A1C37CF37951010805E2FF0A79
:103FE00008E17851580805E3795307E17851F90859
:103FF00004E3010E796FE00E786F7B51010805E252
:10400000FF0A08E17A51580805E37B5307E17A512A
:10401000F90804E3010E7B6FE00E7A6F7D51010811
:1040200005E2FF0A08E17C51580805E37D5307E1EA
:104030007C51F90804E3010E7D6FE00E7C6F010EE8
:10404000A86F00012FEC07F0010E0301A56FA66F0A
:104050000001CDEC08F0A40EF66E070EF76E2EEC04
:1040600009F0040E0301966FC80EA96F0001D2EC8F
:1040700006F00301962FF8D7030E986F660E976F20
:1040800079C39AF378C399F39C6BFA0E9B6F020E77
:104090009E6F580E9D6F0001AFEC1AF002C079F3CD
:1040A00001C078F3030E0301986F6C0E976F7BC30A
:1040B0009AF37AC399F39C6BFA0E9B6F020E9E6F74
:1040C000580E9D6F0001AFEC1AF002C07BF301C0E7
:1040D0007AF3030E0301986F720E976F7DC39AF304
:1040E0007CC399F39C6BFA0E9B6F020E9E6F580E69
:1040F0009D6F0001AFEC1AF002C07DF301C07CF3AC
:1041000078C396F3F250006EF29EAA6A0A0EA96E68
:1041100096C3A8FFA69CA69EA6840F01550EA76E67
:10412000AA0EA76EA682A6B2FED7A6940050F212DF
:1041300079C396F3F2CF00F0F29EAA6A0B0EA96E35
:1041400079C3A8FFA69CA69EA684550EA76EAA0EAC
:10415000A76EA682A6B2FED7A6940050F2127AC32A
:1041600096F3F2CF00F0F29EAA6A0C0EA96E7AC303
:10417000A8FFA69CA69EA684550EA76EAA0EA76EA3
:10418000A682A6B2FED7A6940050F2127BC396F385
:10419000F2CF00F0F29EAA6A0D0EA96E7BC3A8FFB3
:1041A000A69CA69EA684550EA76EAA0EA76EA682F2
:1041B000A6B2FED7A6940050F2127CC396F3F2CFBB
:1041C00000F0F29EAA6A0E0EA96E7CC3A8FFA69C00
:1041D000A69EA684550EA76EAA0EA76EA682A6B2AC
:1041E000FED7A6940050F2127DC396F3F2CF00F0F2
:1041F000F29EAA6A0F0EA96E7DC3A8FFA69CA69E7A
:10420000A684550EA76EAA0EA76EA682A6B2FED7EA
:10421000A6940050F21279C3A7F278C3A6F27BC32A
:10422000A9F27AC3A8F27DC3ABF27CC3AAF2010E55
:104230000301A86F00012FEC07F0010E0301A56F29
:10424000A66F0001CDEC08F0B60EF66E070EF76E05
:104250002EEC09F0010E0301A56F020EA66F0001FE
:10426000CDEC08F0100EE96E79C398F378C397F39C
:10427000FFEC1BF03A0E0301AE6F000117EC09F0E2
:10428000100EE96E7BC398F37AC397F3FFEC1BF033
:104290003A0E0301AE6F000117EC09F0100EE96E43
:1042A0007DC398F37CC397F3FFEC1BF0D30EF66E3F
:1042B000070EF76E060E0301A56F00015CEC0CF013
:1042C00081BCFED7140E0301A96F0001D2EC06F0E9
:1042D00081ACFED7320E0301A96F0001D2EC06F0CB
:1042E00003014D6931D24C510208D8A4F6D14F0ECA
:1042F0007E6F4C0E7F6F200E806F520E816F3A0ED4
:10430000826F836B4F0E846F4C0E856F200E866F0D
:10431000590E876F3A0E886F896B4F0E8A6F4C0E5D
:104320008B6F200E8C6F420E8D6F3A0E8E6F8F6BDF
:10433000F2CF96F3F29EAA6A410EA96EA69CA69EA3
:10434000A680A85096BFF28E976FF2CF98F3F29E98
:10435000AA6A400EA96EA69CA69EA680A85098BFE9
:10436000F28E996F97C391F399C390F3F2CF9AF3BA
:10437000F29EAA6A430EA96EA69CA69EA680A8508D
:104380009ABFF28E9B6FF2CF9CF3F29EAA6A420E06
:10439000A96EA69CA69EA680A8509CBFF28E9D6F7B
:1043A0009BC393F39DC392F3F2CF9EF3F29EAA6A4E
:1043B000450EA96EA69CA69EA680A8509EBFF28E12
:1043C0009F6FF2CFA0F3F29EAA6A440EA96EA69C3C
:1043D000A69EA680A850A0BFF28EA16F9FC395F3A2
:1043E000A1C394F3915100080BE2FF0A06E190513A
:1043F0002C0806E202D000A003D0916B1E0E906F35
:10440000935100080BE2FF0A06E192512C0806E2E4
:1044100002D000A003D0936B1E0E926F955100083E
:104420000BE2FF0A06E194512C0806E202D000A03C
:1044300003D0956B1E0E946F010EA86F00012FEC38
:1044400007F0010E0301A56FA66F0001CDEC08F087
:10445000DA0EF66E070EF76E2EEC09F0040E03016D
:10446000966FC80EA96F0001D2EC06F00301962FDB
:10447000F8D7030E986F7E0E976F91C39AF390C38F
:1044800099F39C6B9B6B010E9E6F2C0E9D6F000130
:10449000AFEC1AF002C091F301C090F3030E0301D8
:1044A000986F840E976F93C39AF392C399F39C6BA2
:1044B0009B6B010E9E6F2C0E9D6F0001AFEC1AF0EE
:1044C00002C093F301C092F3030E0301986F8A0EAA
:1044D000976F95C39AF394C399F39C6B9B6B010EF2
:1044E0009E6F2C0E9D6F0001AFEC1AF002C095F389
:1044F00001C094F390C396F3F250006EF29EAA6A44
:10450000400EA96E96C3A8FFA69CA69EA6840F0186
:10451000550EA76EAA0EA76EA682A6B2FED7A694C7
:104520000050F21291C396F3F2CF00F0F29EAA6A05
:10453000410EA96E91C3A8FFA69CA69EA684550E07
:10454000A76EAA0EA76EA682A6B2FED7A6940050AA
:10455000F21292C396F3F2CF00F0F29EAA6A420ED4
:10456000A96E92C3A8FFA69CA69EA684550EA76E10
:10457000AA0EA76EA682A6B2FED7A6940050F2128B
:1045800093C396F3F2CF00F0F29EAA6A430EA96E8F
:1045900093C3A8FFA69CA69EA684550EA76EAA0E3E
:1045A000A76EA682A6B2FED7A6940050F21294C3BC
:1045B00096F3F2CF00F0F29EAA6A440EA96E94C35D
:1045C000A8FFA69CA69EA684550EA76EAA0EA76E4F
:1045D000A682A6B2FED7A6940050F21295C396F317
:1045E000F2CF00F0F29EAA6A450EA96E95C3A8FF0D
:1045F000A69CA69EA684550EA76EAA0EA76EA6829E
:10460000A6B2FED7A6940050F21291C3B3F290C3A3
:10461000B2F293C3B5F292C3B4F295C3B7F294C3A6
:10462000B6F2010E0301A86F00012FEC07F0010E96
:104630000301A56FA66F0001CDEC08F0EC0EF66E3D
:10464000070EF76E2EEC09F0010E0301A56F020EA6
:10465000A66F0001CDEC08F0100EE96E91C398F33F
:1046600090C397F3FFEC1BF03A0E0301AE6F00010D
:1046700017EC09F0100EE96E93C398F392C397F309
:10468000FFEC1BF03A0E0301AE6F000117EC09F0CE
:10469000100EE96E95C398F394C397F3FFEC1BF0EB
:1046A000090EF66E080EF76E060E0301A56F0001E7
:1046B0005CEC0CF081BCFED7140E0301A96F000165
:1046C000D2EC06F081ACFED7320E0301A96F0001D7
:1046D000D2EC06F003014D6937D04C51030834E1A8
:1046E000010EA86F00012FEC07F0010E0301A56F6A
:1046F000A66F0001CDEC08F0100EF66E080EF76EF6
:104700002EEC09F0010E0301A56F020EA66F000149
:10471000CDEC08F0220EF66E080EF76E2EEC09F0C6
:10472000040E0301966FFA0EA96F0001D2EC06F099
:104730000301962FF8D7010EA86F00012FEC07F0A8
:1047400022EC11F009D00301010EA96F0001D2EC97
:1047500006F00301F5EF1CF0000107EF3AF0320E0E
:104760000301A96F0001D2EC06F081ACFED7F2CFB5
:104770000AF3F29EAA6A180EA96EA69CA69EA680AF
:10478000A85003010ABFF28E0B6FF2CF0CF3F29E1A
:10479000AA6A170EA96EA69CA69EA680A8500CBF5A
:1047A000F28E0D6F0BC300F30DC3FFF20051020830
:1047B00010E2FF0A08E10201FF51E708D8A002D089
:1047C000030107D00301030E006FE70E0201FF6F24
:1047D000030100C302F3FFC201F3010E036F056979
:1047E000046906690791A86F00012FEC07F0640EB9
:1047F0000301A96F0001D2EC06F003010051020889
:1048000010E2FF0A08E10201FF51E708D8A002D038
:10481000030107D00301030E006FE70E0201FF6FD3
:10482000030104510201FF5D0BE103010551005D2D
:10483000D8B402D0020104D00651035D5EE002014B
:10484000010E0301A86F00012FEC07F0010E030118
:10485000A56FA66F0001CDEC08F00301032D09D070
:10486000340EF66E080EF76E00012EEC09F014D02F
:10487000030103510A0809E1460EF66E080EF76EB1
:1048800000012EEC09F008D00301580EF66E080E58
:10489000F76E00012EEC09F0010E0301A56F020E68
:1048A000A66F0001CDEC08F06A0EF66E080EF76EEA
:1048B000030E0301A56F00015CEC0CF0100EE96E15
:1048C00000C3A6F3FFC2A5F370EC0CF0700EF66EF9
:1048D000080EF76E070E0301A56F00015CEC0CF0EB
:1048E00000C305F3FFC204F303C306F3320E030152
:1048F000A96F0001D2EC06F0030181B622D0320E7E
:10490000A96F0001D2EC06F00301032D03D00A0EBB
:10491000036F08D003510A0803E1640E036F02D04D
:10492000010E036F0669320E086F81B60AD0085374
:1049300008E00A0EA96F0001D2EC06F00301080797
:10494000F4D781B417D0320EA96F0001D2EC06F073
:10495000010E0301036F0669320E096F81B40AD09C
:10496000095308E00A0EA96F0001D2EC06F003011A
:104970000907F4D782BA34D0928880A831D04D523A
:104980002FE1050EA96F0001D2EC06F0E70ED880EA
:1049900003010355006E030ED8A0E806036E00C0A5
:1049A00001F00051035C11E308E10201FF51015CD9
:1049B000D8B002D0030109D0030103510201FF273F
:1049C000000E030100234D6A02D0010E4D6E280E29
:1049D000A96F0001D2EC06F082AAFED729D003010C
:1049E000928880B826D082AA24D04D5222E1050EAA
:1049F000A96F0001D2EC06F00301005305E1035159
:104A00000201FF5D0AE3030103510201FF5F000E93
:104A10000301005B4D6A04D00201010E4D6E0301DB
:104A2000280EA96F0001D2EC06F0928880A8FDD76D
:104A3000030182AA04D0928880A801D04D6A81BC6B
:104A400005D107B103D1140EA96F0001D2EC06F015
:104A500081BCFAD00301078101510201FF5D06E12B
:104A600003010251005DD8B4A6D002010301005138
:104A7000020810E2FF0A08E10201FF51E708D8A08E
:104A800002D0030107D00301030E006FE70E0201FD
:104A9000FF6F0301FFC20AF3F250006EF29EAA6A92
:104AA000170EA96E0AC3A8FFA69CA69EA6840F0196
:104AB000550EA76EAA0EA76EA682A6B2FED7A69422
:104AC0000050F21200C30AF3F2CF00F0F29EAA6A7D
:104AD000180EA96E00C3A8FFA69CA69EA684550E1C
:104AE000A76EAA0EA76EA682A6B2FED7A694005005
:104AF000F212010E0301A86F00012FEC07F0010E66
:104B00000301A56FA66F0001CDEC08F0780EF66EDC
:104B1000080EF76E2EEC09F0010E0301A56F020ED0
:104B2000A66F0001CDEC08F0860EF66E080EF76E4B
:104B3000030E0301A56F00015CEC0CF0100EE96E92
:104B400000C3A6F3FFC2A5F370EC0CF08C0EF66E5A
:104B5000080EF76E070E0301A56F00015CEC0CF068
:104B600081BC07D00A0E0301A96F0001D2EC06F048
:104B7000F7D7010E0301A56F020EA66F0001CDEC61
:104B800008F0940EF66E080EF76E2EEC09F081BC5C
:104B9000FED7140E0301A96F0001D2EC06F081AC20
:104BA000FED7320E0301A96F0001D2EC06F022EC11
:104BB00011F03CD0030181BC07D00A0EA96F00019F
:104BC000D2EC06F00301F7D7010EA86F00012FEC1D
:104BD00007F0010E0301A56FA66F0001CDEC08F0F0
:104BE000A60EF66E080EF76E2EEC09F0010E03010C
:104BF000A56F020EA66F0001CDEC08F0B00EF66EA8
:104C0000080EF76E2EEC09F081BCFED7140E0301DE
:104C1000A96F0001D2EC06F081ACFED7320E030181
:104C2000A96F0001D2EC06F022EC11F0010E030195
:104C3000A86F00012FEC07F0640E0301A96F0001BB
:104C4000D2EC06F010D003D003010791000181AC33
:104C500003D0030107910001010E0301A96F0001B8
:104C6000D2EC06F0CAD50DEF3AF0320E0301A96F6F
:104C70000001D2EC06F081ACFED7F2CF0AF3F29E2F
:104C8000AA6A1B0EA96EA69CA69EA680A850030128
:104C90000ABFF28E0B6FF2CF0CF3F29EAA6A1A0EC5
:104CA000A96EA69CA69EA680A8500CBFF28E0D6F82
:104CB0000BC300F30DC3FFF20051020810E2FF0A1C
:104CC00008E10201FF51E708D8A002D0030107D094
:104CD0000301030E006FE70E0201FF6F030100C323
:104CE00002F3FFC201F3010E036F0569046906694F
:104CF0000791A86F00012FEC07F0640E0301A96F64
:104D00000001D2EC06F003010051020810E2FF0A94
:104D100008E10201FF51E708D8A002D0030107D043
:104D20000301030E006FE70E0201FF6F0301045140
:104D30000201FF5D0BE103010551005DD8B402D013
:104D4000020104D00651035D5EE00201010E030181
:104D5000A86F00012FEC07F0010E0301A56FA66FED
:104D60000001CDEC08F00301032D09D0BC0EF66E56
:104D7000080EF76E00012EEC09F014D00301035168
:104D80000A0809E1CE0EF66E080EF76E00012EEC51
:104D900009F008D00301E00EF66E080EF76E000170
:104DA0002EEC09F0010E0301A56F020EA66F0001A3
:104DB000CDEC08F0F20EF66E080EF76E030E03014E
:104DC000A56F00015CEC0CF0100EE96E00C3A6F3B9
:104DD000FFC2A5F370EC0CF0F80EF66E080EF76E3D
:104DE000070E0301A56F00015CEC0CF000C305F396
:104DF000FFC204F303C306F3320E0301A96F0001DF
:104E0000D2EC06F0030181B622D0320EA96F000168
:104E1000D2EC06F00301032D03D00A0E036F08D075
:104E200003510A0803E1640E036F02D0010E036F01
:104E30000669320E086F81B60AD0085308E00A0EE0
:104E4000A96F0001D2EC06F003010807F4D781B482
:104E500017D0320EA96F0001D2EC06F0010E03014B
:104E6000036F0669320E096F81B40AD0095308E056
:104E70000A0EA96F0001D2EC06F003010907F4D76E
:104E800082BA34D0928880A831D04D522FE1050EDD
:104E9000A96F0001D2EC06F0E70ED880030103559C
:104EA000006E030ED8A0E806036E00C001F00051AA
:104EB000035C11E308E10201FF51015CD8B002D0AC
:104EC000030109D0030103510201FF27000E030172
:104ED00000234D6A02D0010E4D6E280EA96F00010D
:104EE000D2EC06F082AAFED729D00301928880B8BE
:104EF00026D082AA24D04D5222E1050EA96F0001CE
:104F0000D2EC06F00301005305E103510201FF5DFD
:104F10000AE3030103510201FF5F000E0301005B7E
:104F20004D6A04D00201010E4D6E0301280EA96FD7
:104F30000001D2EC06F0928880A8FDD7030182AA76
:104F400004D0928880A801D04D6A81BC05D107B1F8
:104F500003D1140EA96F0001D2EC06F081BCFAD087
:104F60000301078101510201FF5D06E103010251C6
:104F7000005DD8B4A6D0020103010051020810E27E
:104F8000FF0A08E10201FF51E708D8A002D003019F
:104F900007D00301030E006FE70E0201FF6F03014C
:104FA000FFC20AF3F250006EF29EAA6A1A0EA96EB0
:104FB0000AC3A8FFA69CA69EA6840F01550EA76E45
:104FC000AA0EA76EA682A6B2FED7A6940050F21231
:104FD00000C30AF3F2CF00F0F29EAA6A1B0EA96E7C
:104FE00000C3A8FFA69CA69EA684550EA76EAA0E77
:104FF000A76EA682A6B2FED7A6940050F212010EAA
:105000000301A86F00012FEC07F0010E0301A56F4B
:10501000A66F0001CDEC08F0000EF66E090EF76EDB
:105020002EEC09F0010E0301A56F020EA66F000120
:10503000CDEC08F0120EF66E090EF76E030E0301AA
:10504000A56F00015CEC0CF0100EE96E00C3A6F336
:10505000FFC2A5F370EC0CF0180EF66E090EF76E99
:10506000070E0301A56F00015CEC0CF081BC07D0BA
:105070000A0E0301A96F0001D2EC06F0F7D7010E6A
:105080000301A56F020EA66F0001CDEC08F0200E03
:10509000F66E090EF76E2EEC09F081BCFED7140EE9
:1050A0000301A96F0001D2EC06F081ACFED7320EED
:1050B0000301A96F0001D2EC06F022EC11F03CD004
:1050C000030181BC07D00A0EA96F0001D2EC06F0E3
:1050D0000301F7D7010EA86F00012FEC07F0010EB6
:1050E0000301A56FA66F0001CDEC08F0320EF66E3D
:1050F000090EF76E2EEC09F0010E0301A56F020EEA
:10510000A66F0001CDEC08F03C0EF66E090EF76EAE
:105110002EEC09F081BCFED7140E0301A96F00012B
:10512000D2EC06F081ACFED7320E0301A96F00016C
:10513000D2EC06F022EC11F0010E0301A86F000181
:105140002FEC07F0640E0301A96F0001D2EC06F00A
:1051500010D003D003010791000181AC03D00301FB
:1051600007910001010E0301A96F0001D2EC06F0C6
:10517000CAD513EF3AF0320E0301A96F0001D2EC49
:1051800006F081ACFED7F2CF0AF3F29EAA6A1E0E99
:10519000A96EA69CA69EA680A85003010ABFF28E07
:1051A0000B6FF2CF0CF3F29EAA6A1D0EA96EA69C9D
:1051B000A69EA680A8500CBFF28E0D6F0BC300F305
:1051C0000DC3FFF2005305E10201FF51640805E23F
:1051D0000301006B640E0201FF6F00C302F3FFC204
:1051E00001F3010E0301036F056904690669079164
:1051F000A86F00012FEC07F0640E0301A96F0001F6
:10520000D2EC06F00301005305E10201FF516408EE
:1052100005E20301006B640E0201FF6F03010451FC
:105220000201FF5D0BE103010551005DD8B402D01E
:10523000020104D00651035D52E00201010E030198
:10524000A86F00012FEC07F0010E0301A56FA66FF8
:105250000001CDEC08F00301032D09D0480EF66ED5
:10526000090EF76E00012EEC09F008D003015A0E6A
:10527000F66E090EF76E00012EEC09F0010E030127
:10528000A56F020EA66F0001CDEC08F06C0EF66E55
:10529000090EF76E030E0301A56F00015CEC0CF024
:1052A000100EE96E00C3A6F3FFC2A5F370EC0CF07C
:1052B000720EF66E090EF76E080E0301A56F00015F
:1052C0005CEC0CF000C305F3FFC204F303C306F368
:1052D000320E0301A96F0001D2EC06F0030181B682
:1052E0001BD0320EA96F0001D2EC06F00301032D92
:1052F00002D00A0E01D0010E036F0669320E086F4C
:1053000081B60AD0085308E00A0EA96F0001D2EC5A
:1053100006F003010807F4D781B417D0320EA96F45
:105320000001D2EC06F0010E0301036F0669320E94
:10533000096F81B40AD0095308E00A0EA96F000171
:10534000D2EC06F003010907F4D782BA2BD0928879
:1053500080A828D04D5226E1050EA96F0001D2EC9D
:1053600006F0640ED88003010355005310E10201DA
:10537000FF5D04E0D8A002D0030109D0030103516E
:105380000201FF27000E030100234D6A02D0010E27
:105390004D6E280EA96F0001D2EC06F082AAFED74E
:1053A00029D00301928880B826D082AA24D04D52F9
:1053B00022E1050EA96F0001D2EC06F003010053B3
:1053C00005E103510201FF5D0AE3030103510201FC
:1053D000FF5F000E0301005B4D6A04D00201010E65
:1053E0004D6E0301280EA96F0001D2EC06F09288E1
:1053F00080A8FDD7030182AA04D0928880A801D09A
:105400004D6A81BCF9D007B1F7D0140EA96F000125
:10541000D2EC06F081BCEED00301078101510201FC
:10542000FF5D06E103010251005DD8B49AD002018C
:105430000301005305E10201FF51640805E2030185
:10544000006B640E0201FF6FFFC20AF3F250006EA0
:10545000F29EAA6A1D0EA96E0AC3A8FFA69CA69E6C
:10546000A6840F01550EA76EAA0EA76EA682A6B23D
:10547000FED7A6940050F21200C30AF3F2CF00F058
:10548000F29EAA6A1E0EA96E00C3A8FFA69CA69E45
:10549000A684550EA76EAA0EA76EA682A6B2FED748
:1054A000A6940050F212010E0301A86F00012FEC28
:1054B00007F0010E0301A56FA66F0001CDEC08F007
:1054C0007C0EF66E090EF76E2EEC09F0010E03014C
:1054D000A56F020EA66F0001CDEC08F0200E0301AF
:1054E000AE6F000117EC09F0100EE96E00C3A6F3D1
:1054F000FFC2A5F370EC0CF0900EF66E090EF76E7D
:10550000080E0301A56F00015CEC0CF081BC07D014
:105510000A0E0301A96F0001D2EC06F0F7D7010EC5
:105520000301A56F020EA66F0001CDEC08F09A0EE4
:10553000F66E090EF76E2EEC09F081BCFED7140E44
:105540000301A96F0001D2EC06F081ACFED7320E48
:105550000301A96F0001D2EC06F022EC11F03CD05F
:10556000030181BC07D00A0EA96F0001D2EC06F03E
:105570000301F7D7010EA86F00012FEC07F0010E11
:105580000301A56FA66F0001CDEC08F0AC0EF66E1E
:10559000090EF76E2EEC09F0010E0301A56F020E45
:1055A000A66F0001CDEC08F0B60EF66E090EF76E90
:1055B0002EEC09F081BCFED7140E0301A96F000187
:1055C000D2EC06F081ACFED7320E0301A96F0001C8
:1055D000D2EC06F022EC11F0010E0301A86F0001DD
:1055E0002FEC07F0640E0301A96F0001D2EC06F066
:1055F00010D003D003010791000181AC03D0030157
:1056000007910001010E0301A96F0001D2EC06F021
:10561000F9D519EF3AF0015086C38DF3640E0301FA
:105620008E6F0001A8EC0FF000C086F30150300E21
:1056300008E1030187A310D087B70ED087B9200EE9
:1056400004D00301879787998781012601C0AEF3B3
:10565000000117EC09F0030186C38DF30A0E8E6F6B
:105660000001A8EC0FF000C086F30150300E08E1F5
:10567000030187B70BD087A109D087B9200E00019D
:10568000012601C0AEF317EC09F00301300E8627A6
:1056900086C3AEF3000117EC09F0120081ACFED70F
:1056A000320E0301A96F0001D2EC06F0200E0201B8
:1056B000FF6F240E0301006F280E016F2C0E026F86
:1056C000300E036F3E0E106F200E116F540E126FCE
:1056D000490E136F4D0E146F450E156F520E166F57
:1056E000200E176F310E186F200E196F1A6F1B6F77
:1056F0001C6F1D6F1E6F1F6B3E0E206F200E216FE3
:10570000540E226F490E236F4D0E246F450E256FE8
:10571000520E266F200E276F320E286F200E296F33
:105720002A6F2B6F2C6F2D6F2E6F2F6B3E0E306FED
:10573000200E316F540E326F490E336F4D0E346FA1
:10574000450E356F520E366F200E376F330E386FA1
:10575000200E396F3A6F3B6F3C6F3D6F3E6F3F6B72
:105760003E0E406F200E416F540E426F490E436F44
:105770004D0E446F450E456F520E466F200E476F1B
:10578000340E486F200E496F4A6F4B6F4C6F4D6F50
:105790004E6F4F6B3E0E506F200E516F540E526F76
:1057A000490E536F4D0E546F450E556F520E566F86
:1057B000200E576F350E586F200E596F5A6F5B6F62
:1057C0005C6F5D6F5E6F5F6B3E0E606F200E616F92
:1057D000450E626F580E636F490E646F540E656F0D
:1057E0002D0E666F3E0E676F4E0E686F450E696F29
:1057F000580E6A6F540E6B6F200E6C6F6D6F6E6F6C
:105800006F6B030E056F100E046F030E076F200EF3
:10581000066F030E096F300E086F030E0B6F400EFC
:105820000A6F030E0D6F500E0C6F030E0F6F600E9C
:105830000E6F060E706F716B72697251715D32E09E
:10584000010EA86F00012FEC07F0010E0301A56FF8
:10585000A66F0001CDEC08F04C0EF66E0A0EF76E46
:105860002EEC09F0010E0301A56F020EA66F0001D8
:10587000CDEC08F0D89003017135036A040FE96E8E
:10588000030E0320EA6EECCF86F3ED52EFCF85F3E3
:1058900086C3EAFF85C3E9FF00015AEC10F071C32B
:1058A00072F3030182BA17D0928880A814D0050E33
:1058B000A96F0001D2EC06F00301712B7051715DEC
:1058C00001E3716B82AAFED7140EA96F0001D2EC1E
:1058D00006F01BD00301928880B818D082AA16D097
:1058E000050EA96F0001D2EC06F00301715304E12B
:1058F000010E705D716F01D07107928880A8FDD78D
:10590000140EA96F0001D2EC06F0030181BC45D34F
:10591000140EA96F0001D2EC06F081BC3FD381AC1C
:10592000FED7320E0301A96F0001D2EC06F003018D
:105930007151050802E134D330D371C373F3010E02
:10594000A86F00012FEC07F0010E0301A56FA66FF1
:105950000001CDEC08F0010E03017325856F5C0E8C
:10596000F66E0A0EF76E0D0EA56F00015CEC0CF0E2
:1059700085C387F3180E0301886F0001BEEC0FF09A
:10598000010E0301A56F020EA66F0001CDEC08F019
:105990006C0EF66E0A0EF76E2EEC09F081BCFED787
:1059A000140E0301A96F0001D2EC06F081ACFED702
:1059B000320E0301A96F0001D2EC06F0036A030165
:1059C0007351FF0FE96E020E0320EA6EEFCF74F3FE
:1059D000F2CF85F3F29EAA6A74C3A9FFA69CA69E85
:1059E000A680A85085BFF28E756F010E7425866F54
:1059F000F2CF87F3F29EAA6A86C3A9FFA69CA69E51
:105A0000A680A85087BFF28E766F020E7425866F2F
:105A1000F2CF88F3F29EAA6A86C3A9FFA69CA69E2F
:105A2000A680A85088BFF28E776F030E7425866F0C
:105A3000F2CF89F3F29EAA6A86C3A9FFA69CA69E0E
:105A4000A680A85089BFF28E786F7551170801E2C1
:105A5000756B76513B0801E2766B7751170801E2CE
:105A6000776B78513B0801E2786B75C379F376C3A5
:105A70007AF377C37BF378C37CF37D6B7E697F69B0
:105A80008069816982698391010EA86F00012FEC02
:105A900007F003017E517D5D0DE17F51755D0AE1E7
:105AA0008051765D07E18151775D04E18251785D37
:105AB000D8B4EFD0010EA56FA66F0001CDEC08F0B1
:105AC0007C0EF66E0A0EF76E2EEC09F003017D5384
:105AD00014E15B0EAE6F000117EC09F075C386F39D
